:100000000C9456000C946B000C946B000C946B00D9
:100010000C946B000C946B000C946B000C946B00B4
:100020000C946B000C946B000C946B000C946B00A4
:100030000C946B000C946B000C946B000C946B0094
:100040000C946B000C946B000C946B000C946B0084
:100050000C946B000C946B000C946B000C946B0074
:100060000C946B000C946B000C946B000C946B0064
:100070000C946B000C946B000C946B000C946B0054
:100080000C946B000C946B000C946B000C946B0044
:100090000C946B000C946B000C946B000C946B0034
:1000A0000C946B000C946B000C946B0011241FBE1D
:1000B000CFEFDAE0DEBFCDBF11E0A0E0B1E0E0E0DD
:1000C000F1E002C005900D92A630B107D9F70E9469
:1000D0006D000C947E000C94000080E88093610019
:1000E0001092610080E197E220E931E0F901319757
:1000F000F1F70197D9F781E08BB9FECFF894FFCFE4
:0601000088130000003F1F
:00000001FF
