:100000000C9456000C946B000C946B000C946B00D9
:100010000C946B000C946B000C946B000C946B00B4
:100020000C946B000C946B000C946B000C946B00A4
:100030000C946B000C946B000C946B000C946B0094
:100040000C946B000C946B000C946B000C946B0084
:100050000C946B000C946B000C946B000C946B0074
:100060000C946B000C946B000C946B000C946B0064
:100070000C946B000C946B000C946B000C946B0054
:100080000C946B000C946B000C946B000C946B0044
:100090000C946B000C946B000C946B000C946B0034
:1000A0000C946B000C946B000C946B0011241FBE1D
:1000B000CFEFDAE0DEBFCDBF11E0A0E0B1E0E2EDCE
:1000C000F5E002C005900D92A630B107D9F70E9465
:1000D0006D000C94E7020C9400002F923F924F9217
:1000E0005F926F927F928F929F92AF92BF92CF92C8
:1000F000DF92EF92FF920F931F93DF93CF9300D085
:10010000CDB7DEB780E8809361001092610080E196
:1001100097E220E931E0F9013197F1F70197D9F73A
:100120006091000170910101882777FD8095982FDB
:100130000E94D0015B016C01E0900201F09003018C
:100140000091040110910501A80197010E94840209
:100150001B012C0160E070E080E89FE3A80197019B
:100160000E9439019B01AC01C601B5010E948402C5
:100170003B014C01C201B10120E030E04AE755E407
:100180000E9484025B016C010E94A20169837A8350
:1001900081E08BB9C601B50120E030E040E85FE3C3
:1001A0000E949E0187FD23C0C601B50120E03FEFFC
:1001B0004FE757E40E948002181624F089819A8143
:1001C0009C0117C0C201B10120E030E040E251E4DF
:1001D0000E9484020E94A20106C080E991E001977A
:1001E000F1F76150704061157105B9F705C021E064
:1001F00030E0C9010197F1F71BB8C401B30120E059
:1002000030E04AE755E40E9484027B018C0120E043
:1002100030E040E85FE30E949E0188231CF461E027
:1002200070E023C0C801B70120E03FEF4FE757E47B
:100230000E9480021816ACF4C401B30120E030E043
:1002400040E251E40E9484020E94A20106C080E9BB
:1002500091E00197F1F76150704061157105B9F7B0
:1002600097CFC801B7010E94A201CB010197F1F716
:100270008FCF5058BB27AA270ED008C1F9D030F035
:10028000FED020F031F49F3F11F41EF4EEC00EF4C6
:10029000E095E7FBE4C0E92F0AD180F3BA176207C3
:1002A00073078407950718F071F49EF522C10EF4C8
:1002B000E0950B2EBA2FA02D0B01B90190010C0176
:1002C000CA01A0011124FF27591B99F0593F50F48E
:1002D000503E68F11A16F040A22F232F342F4427E6
:1002E000585FF3CF469537952795A795F0405395DE
:1002F000C9F77EF41F16BA0B620B730B840BBAF0AE
:100300009150A1F0FF0FBB1F661F771F881FC2F718
:100310000EC0BA0F621F731F841F48F4879577952C
:100320006795B795F7959E3F08F0B3CF9395880FE3
:1003300008F09927EE0F9795879508956CD008F4EB
:1003400081E00895BCD088F09F5790F0B92F99278D
:10035000B751A0F0D1F0660F771F881F991F1AF0D0
:10036000BA95C9F712C0B13081F0C3D0B1E0089599
:10037000C0C0672F782F8827B85F39F0B93FCCF31A
:10038000869577956795B395D9F73EF490958095C6
:10039000709561957F4F8F4F9F4F0895E89409C0E6
:1003A00097FB3EF490958095709561957F4F8F4FA8
:1003B0009F4F9923A9F0F92F96E9BB279395F695BE
:1003C000879577956795B795F111F8CFFAF4BB0F3C
:1003D00011F460FF1BC06F5F7F4F8F4F9F4F16C0A0
:1003E000882311F096E911C0772321F09EE8872F2A
:1003F000762F05C0662371F096E8862F70E060E0E6
:100400002AF09A95660F771F881FDAF7880F96955E
:10041000879597F90895990F0008550FAA0BE0E802
:10042000FEEF16161706E807F907C0F012161306B6
:10043000E407F50798F0621B730B840B950B39F4F6
:100440000A2661F0232B242B252B21F408950A265C
:1004500009F4A140A6958FEF811D811D089597F99C
:100460009F6780E870E060E008959FEF80EC08955A
:1004700000240A9416161706180609060895002483
:100480000A9412161306140605060895092E0394FD
:10049000000C11F4882352F0BB0F40F4BF2B11F471
:1004A00060FF04C06F5F7F4F8F4F9F4F089557FDD0
:1004B0009058440F551F59F05F3F71F04795880FD2
:1004C00097FB991F61F09F3F79F087950895121669
:1004D00013061406551FF2CF4695F1DF08C0161615
:1004E00017061806991FF1CF8695710561050894C6
:1004F0000895E894BB2766277727CB0197F90895DD
:100500008ADF08F48FEF08950BD0C0CFB1DF28F059
:10051000B6DF18F0952309F0A2CFA7CF1124EACFB8
:10052000C6DFA0F3959FD1F3950F50E0551F629F52
:10053000F001729FBB27F00DB11D639FAA27F00D3C
:10054000B11DAA1F649F6627B00DA11D661F829F63
:100550002227B00DA11D621F739FB00DA11D621F48
:10056000839FA00D611D221F749F3327A00D611D65
:10057000231F849F600D211D822F762F6A2F112447
:100580009F5750408AF0E1F088234AF0EE0FFF1F9A
:10059000BB1F661F771F881F91505040A9F79E3FD1
:1005A000510570F05CCFA6CF5F3FECF3983EDCF3D3
:1005B000869577956795B795F795E7959F5FC1F70E
:1005C000FE2B880F911D9695879597F90895F894BD
:0205D000FFCF5B
:0605D20088130000003F49
:00000001FF
