:100000000C9456000C946B000C946B000C946B00D9
:100010000C946B000C946B000C946B000C946B00B4
:100020000C946B000C946B000C946B000C946B00A4
:100030000C946B000C946B000C946B000C946B0094
:100040000C946B000C946B000C946B000C946B0084
:100050000C946B000C946B000C946B000C946B0074
:100060000C946B000C946B000C946B000C946B0064
:100070000C946B000C946B000C946B000C946B0054
:100080000C946B000C946B000C946B000C946B0044
:100090000C946B000C946B000C946B000C946B0034
:1000A0000C946B000C946B000C946B0011241FBE1D
:1000B000CFEFDAE0DEBFCDBF11E0A0E0B1E0EEEFC0
:1000C000F5E002C005900D92AA30B107D9F70E9461
:1000D0006D000C94FD020C9400006F927F928F9241
:1000E0009F92AF92BF92CF92DF92EF92FF920F93C7
:1000F0001F936091000170910101882777FD809521
:10010000982F0E940E029B01AC0160910601709134
:10011000070180910801909109010E9473013B0140
:100120004C01E0900201F090030100910401109154
:100130000501A80197010E949A0220E030E040E00A
:100140005FE30E949A020E94DB0170938900609332
:100150008800609188007091890080E090E00E94A2
:100160000C025B016C0160E070E080E89FE3A80195
:1001700097010E940E017B018C01C401B30120E0B4
:1001800030E040E05FE30E949A029B01AC01C801AD
:10019000B7010E949A029B01AC01C601B5010E9401
:1001A0000F010E94DB017093870060938600259AFF
:1001B00080918000826080938000809181008860BF
:1001C0008093810080918100806180938100809183
:1001D000800080688093800080918100816080939E
:1001E000810080918100826080938100FFCF3E9AE0
:1001F000809190008064809390008091910088604D
:10020000809391008091910081608093910080E0C3
:1002100092E19093990080939800FFCF5058BB27AC
:10022000AA270ED04DC13ED130F043D120F031F499
:100230009F3F11F41EF433C10EF4E095E7FB29C192
:10024000E92F4FD180F3BA17620773078407950728
:1002500018F071F49EF567C10EF4E0950B2EBA2FDD
:10026000A02D0B01B90190010C01CA01A0011124BC
:10027000FF27591B99F0593F50F4503E68F11A1668
:10028000F040A22F232F342F4427585FF3CF4695F9
:1002900037952795A795F0405395C9F77EF41F161B
:1002A000BA0B620B730B840BBAF09150A1F0FF0FE5
:1002B000BB1F661F771F881FC2F70EC0BA0F621FD1
:1002C000731F841F48F4879577956795B795F795C1
:1002D0009E3F08F0B3CF9395880F08F09927EE0F53
:1002E0009795879508950CD0EBC0E3D040F0DAD015
:1002F00030F021F45F3F19F0CCC0511115C1CFC0CF
:10030000F0D098F39923C9F35523B1F3951B550BFE
:10031000BB27AA2762177307840738F09F5F5F4FD8
:10032000220F331F441FAA1FA9F333D00E2E3AF019
:10033000E0E830D091505040E695001CCAF729D033
:10034000FE2F27D0660F771F881FBB1F2617370782
:100350004807AB07B0E809F0BB0B802DBF01FF27B2
:1003600093585F4F2AF09E3F510568F092C0DCC061
:100370005F3FECF3983EDCF3869577956795B795EC
:10038000F7959F5FC9F7880F911D9695879597F907
:100390000895E1E0660F771F881FBB1F6217730780
:1003A0008407BA0720F0621B730B840BBA0BEE1F95
:1003B00088F7E095089504D06894B111B5C0089508
:1003C00098D088F09F5790F0B92F9927B751A0F097
:1003D000D1F0660F771F881F991F1AF0BA95C9F7D9
:1003E00012C0B13081F09FD0B1E008959CC0672F5A
:1003F000782F8827B85F39F0B93FCCF38695779589
:100400006795B395D9F73EF4909580957095619571
:100410007F4F8F4F9F4F0895E89409C097FB3EF49C
:1004200090958095709561957F4F8F4F9F4F992341
:10043000A9F0F92F96E9BB279395F69587957795BF
:100440006795B795F111F8CFFAF4BB0F11F460FF7F
:100450001BC06F5F7F4F8F4F9F4F16C0882311F0D7
:1004600096E911C0772321F09EE8872F762F05C0EB
:10047000662371F096E8862F70E060E02AF09A9586
:10048000660F771F881FDAF7880F9695879597F97B
:10049000089597F99F6780E870E060E008959FEF06
:1004A00080EC089500240A9416161706180609060B
:1004B000089500240A9412161306140605060895DA
:1004C000092E0394000C11F4882352F0BB0F40F462
:1004D000BF2B11F460FF04C06F5F7F4F8F4F9F4FA2
:1004E000089557FD9058440F551F59F05F3F71F024
:1004F0004795880F97FB991F61F09F3F79F087958B
:100500000895121613061406551FF2CF4695F1DF13
:1005100008C0161617061806991FF1CF86957105A3
:10052000610508940895E894BB2766277727CB01D7
:1005300097F908950BD0C4CFB5DF28F0BADF18F0D3
:10054000952309F0A6CFABCF1124EECFCADFA0F3DD
:10055000959FD1F3950F50E0551F629FF001729F58
:10056000BB27F00DB11D639FAA27F00DB11DAA1F77
:10057000649F6627B00DA11D661F829F2227B00DC4
:10058000A11D621F739FB00DA11D621F839FA00D4F
:10059000611D221F749F3327A00D611D231F849F9F
:1005A000600D211D822F762F6A2F11249F575040F6
:1005B0008AF0E1F088234AF0EE0FFF1FBB1F661F91
:1005C000771F881F91505040A9F79E3F510570F04A
:1005D00060CFAACF5F3FECF3983EDCF3869577952A
:1005E0006795B795F795E7959F5FC1F7FE2B880F45
:0E05F000911D9695879597F90895F894FFCF81
:0A05FE0014000000003F00247448C0
:00000001FF
