:100000000C94FA000C9417010C9417010C9417012E
:100010000C9417010C9417010C9417010C94170100
:100020000C9417010C9417010C947F040C94BA04DF
:100030000C9417010C9417010C9417010C941701E0
:100040000C9417010C9417010C9417010C941701D0
:100050000C9417010C9417010C9417010C941701C0
:100060000C9417010C9417010C9417010C941701B0
:100070000C9417010C9417010C9417010C941701A0
:100080000C9417010C9417010C9417010C94170190
:100090000C9417010C9417010C9417010C94170180
:1000A0000C9417010C9417010C9417011C041904EB
:1000B0001604130410040D040A04070404040104C4
:1000C000FE03FB03F803F503F203EF03EC03E9037C
:1000D000E603E303E003DD03DA03D703D403D1032C
:1000E000CE03CB03C803C503C203BF03BC03B903DC
:1000F000B603B303B003AD03AA03A703A403A1038C
:100100009E039B039803950392038F038C0389033B
:100110008603830380037D037A03770374037103EB
:100120006E036B036803650362035F035C030A20CD
:100130006368616E6E656C2063686F73656E200A1C
:100140000000010000750112000200008701430059
:10015000030000CA010401030904CE0112020309CD
:1001600004E2010603030904EA01080001C11201C7
:1001700080360181361201000202000010C0167A9A
:100180000400010102030109024300020100C03220
:1001900009040000010202010005240010010524E9
:1001A000010101042402060524060001070582035B
:1001B00010004009040100020A00000007050302C4
:1001C00040000007058402400000040309041203F4
:1001D0004A002E0020004600690065006E006500A0
:1001E000000006034D003200000008033400310017
:1001F0003000000011241FBECFEFDAE0DEBFCDBF1C
:1002000011E0A0E0B1E0E6E2F0E102C005900D925D
:10021000A032B107D9F711E0A0E2B1E001C01D9210
:10022000AC32B107E1F70E9426020C9411080C943D
:100230000000DF93CF93CDB7DEB768970FB6F89481
:10024000DEBF0FBECDBF9C0180917C008064809397
:100250007C0080917C008F7780937C0080917A0075
:10026000816080937A0080917A00826080937A0026
:1002700080917A00846080937A00DE011196E0E03C
:10028000F1E088E101900D928150E1F7FE01319695
:10029000D90140E050E061E070E046305105F4F4EF
:1002A0002D913C9111972130310551F480917E00C0
:1002B000008002C0220F331F0A94E2F7822B0BC08A
:1002C00020917E00CB01008002C0880F991F0A9404
:1002D000E2F78095822380937E0020C0463051054E
:1002E000E9F02D913C9111972130310551F4809125
:1002F0007D00008002C0220F331F0A94E2F7822B98
:100300000BC020917D00CB01008002C0880F991F97
:100310000A94E2F78095822380937D004F5F5F4FC0
:10032000329612964C30510509F0B7CF68960FB649
:10033000F894DEBF0FBECDBFCF91DF910895E0E20C
:10034000F1E021E030E007C080FF02C0318320836C
:1003500095958795329618161906B4F380E291E0C8
:100360000895EAE7F0E0808180688083808180647E
:100370008083089580917A0084FD03C02FEF3FEFC2
:1003800009C0209178003091790080917A008061D5
:1003900080937A00C9010895CF93DF93EC018E8199
:1003A0009F81892B41F480E090E00E9403078091B7
:1003B0007B008F7D07C081E090E00E940307809161
:1003C0007B00806280937B008C819D81892B41F42E
:1003D00080E090E00E94030780917C008B7F07C043
:1003E00081E090E00E94030780917C00846080930C
:1003F0007C008A819B81892B41F480E090E00E94FF
:10040000030780917C008D7F07C081E090E00E940F
:10041000030780917C00826080937C0088819981B1
:10042000892B41F480E090E00E94030780917C00DA
:100430008E7F07C081E090E00E94030780917C00DE
:10044000816080937C00DF91CF910895DF92EF92DD
:10045000FF920F931F93DF93CF93CDB7DEB76897CB
:100460000FB6F894DEBF0FBECDBF0E94540268E104
:10047000D62E8E010F5F1F4F51E0E52EF12CF801B3
:100480008D2D11928A95E9F7FA82E982C8010E94BE
:1004900019018EE291E00E94250681E090E00E9421
:1004A0009F010E94CC01EBCF81E08093D70080EACE
:1004B0008093D80082E189BD09B400FEFDCF80E9B8
:1004C0008093D8001092E000109228011092290128
:1004D0008CE08093E200789408958091280108953B
:1004E0009FB7F89480912801882339F083E08093A6
:1004F000E9008091E80085FD03C09FBF8FEF08955C
:100500002091F1008091E80085FD03C08BE6809387
:10051000E8009FBF822F08959FB7F894809128012B
:10052000882329F083E08093E9008091F2009FBF47
:10053000089580912801882371F09FB7F89483E093
:100540008093E9002BE602C02093E8008091E80048
:1005500085FDFACF9FBF0895482F809128018823F9
:10056000D9F12FB7F89484E08093E90080912B01B2
:10057000882341F08091E80085FD02C02FBF12C0A2
:1005800010922B019091E400975E34E08091E80096
:1005900085FD13C02FBF8091E400891729F481E005
:1005A00080932B018FEF0895809128018823A1F07B
:1005B0002FB7F8943093E900E9CF4093F100809190
:1005C000E80085FD03C08AE38093E80085E080931E
:1005D0002A012FBF80E008958FEF0895282F809182
:1005E0002801882351F09FB7F89484E08093E900B4
:1005F0008091E80085FD03C09FBF8FEF0895209391
:10060000F1008091E80085FD03C08AE38093E80053
:1006100085E080932A019FBF80E00895CF93DF9308
:10062000EC0180912801882309F41CC13FB7F8949C
:1006300084E08093E90080912B01882309F407C1AD
:100640008091E80085FD02C03FBF0CC110922B01D4
:10065000FEC09091E400975E8091E80085FD13C094
:100660003FBF8091E400891721F481E080932B0142
:10067000F9C080912801882309F4F4C03FB7F894A9
:100680005093E900E9CF8091F2002A2F281B822F96
:1006900090E06817790708F4262F822F90E08134C4
:1006A000910508F0C6C08A5A9F4FFC01EE0FFF1F4C
:1006B0000590F491E02D099489918093F10089913E
:1006C0008093F10089918093F10089918093F100EA
:1006D00089918093F10089918093F10089918093B1
:1006E000F10089918093F10089918093F1008991C3
:1006F0008093F10089918093F10089918093F100BA
:1007000089918093F10089918093F1008991809380
:10071000F10089918093F10089918093F100899192
:100720008093F10089918093F10089918093F10089
:1007300089918093F10089918093F1008991809350
:10074000F10089918093F10089918093F100899162
:100750008093F10089918093F10089918093F10059
:1007600089918093F10089918093F1008991809320
:10077000F10089918093F10089918093F100899132
:100780008093F10089918093F10089918093F10029
:1007900089918093F10089918093F10089918093F0
:1007A000F10089918093F10089918093F100899102
:1007B0008093F10089918093F10089918093F100F9
:1007C00089918093F10089918093F10089918093C0
:1007D000F10089918093F10089918093F1008991D2
:1007E0008093F10089918093F10089918093F100C9
:1007F00089918093F10089918093F1008991809390
:10080000F10089918093F10089918093F1008991A1
:100810008093F10089918093F10089918093F10098
:1008200089918093F10089918093F100899180935F
:10083000F10089918093F1008091E80085FD02C06C
:10084000B093E800621B710940932A0104C054E090
:10085000A0E4BAE345E06115710509F0FACE3FBFA7
:1008600080E001C08FEFDF91CF9108959FB7F8949A
:1008700080912A01882341F084E08093E9008AE393
:100880008093E80010922A019FBF089580911C0177
:10089000089580911D01089580911E010895809111
:1008A00029010895382F9FB7F89480912801882353
:1008B00039F022E02093E9008091E80085FD03C033
:1008C0009FBF8FEF089581EA8093F10080E28093CB
:1008D000F1001092F1001092F1001092F1001092CC
:1008E000F1002093F1001092F1003093F10010928A
:1008F000F1008AE38093E8009FBF80E008951F9293
:100900000F920FB60F9211248F939F938091E10065
:100910001092E100982F83FF11C01092E90081E04E
:100920008093EB001092EC0082E18093ED0088E070
:100930008093F000109228011092290192FF13C0B9
:1009400080912801882379F080912A01882359F029
:10095000815080932A01882331F484E08093E90058
:100960008AE38093E8009F918F910F900FBE0F90C4
:100970001F9018951F920F920FB60F9211240F938C
:100980001F932F933F934F935F936F937F938F9317
:100990009F93AF93BF93EF93FF931092E9008091E1
:1009A000E80083FF3CC14091F1003091F10080915B
:1009B000F100682F70E02091F100922F80E0682B09
:1009C000792B8091F100A82FB0E02091F100922FB7
:1009D00080E0A82BB92B1091F1000091F10082EF7B
:1009E0008093E800363009F05AC028E431E0A901CC
:1009F00045505040F9013797859194918617970794
:100A000001F5FA01859194918A179B07D1F49A0117
:100A10002E5F3F4FF901659174912E5F3F4FF901B1
:100A20004491212F30E0902F80E0282B392B2F3F4D
:100A3000310519F010F02FEF30E0241758F4422F51
:100A400009C0295F3F4F495F5F4FF1E022373F0701
:100A500089F6E5C05EEF8091E800282F30E0C901FB
:100A600085709070892BB9F322FDDCC0342F4131A1
:100A700008F030E1232FCB0106C0FC010196E49180
:100A8000E093F10021502223C1F7630F711D431B36
:100A90005093E8004423F9F63031E9F2C3C0353011
:100AA00061F48EEF8093E8008091E80080FFFCCF36
:100AB000862F80688093E300B5C0393051F5442318
:100AC00009F0ADC0609328011092290110922A010B
:100AD0008EEF8093E8008BE691E021E02093E9001F
:100AE000FC010196E491E093EB00EE2369F0AC0188
:100AF0004F5F5F4FFC0184918093EC00CA01019627
:100B0000FA0134913093ED002F5F253039F78EE1F3
:100B100081C0383061F4403809F081C08091E8002C
:100B200080FFFCCF809128018093F10050C03132CA
:100B300089F4413A09F073C08091E80080FFFCCF4E
:100B4000E8E1F1E081918093F10081E0EF31F80775
:100B5000C9F73DC03032A1F4413209F060C0809144
:100B6000E80082FFFCCFE8E1F1E08091F1008193A1
:100B700081E0EF31F807C9F78BEF8093E80027C0D9
:100B8000323251F4413209F04AC060932901809118
:100B9000E80080FFFCCF1BC03323E9F48091E8001C
:100BA00080FFFCCF423811F080E00DC0A093E90037
:100BB0008091EB0090E025E0969587952A95E1F7E6
:100BC00081701092E9008093F1001092F1008EEF95
:100BD0008093E80027C0313011F0333001F5423006
:100BE000F1F4672BE1F42A2F2F77822F8150843084
:100BF000B0F48EEF8093E8002093E900333079F071
:100C000089E18093EB0081E090E002C0880F991F9A
:100C10002A95E2F78093EA001092EA0003C081E28D
:100C20008093EB00FF91EF91BF91AF919F918F91D6
:100C30007F916F915F914F913F912F911F910F91F4
:100C40000F900FBE0F901F9018951F93CF93DF93B7
:100C5000EC01FE0121961491112349F01A3019F488
:100C60008DE00E94AC02812F0E94AC02F2CFDF9196
:100C7000CF911F910895982F8A3010F087E301C01B
:100C800080E3890F0E94AC0208951F93182F82956C
:100C90008F700E943B06812F8F700E943B061F9130
:100CA00008951F93182F892F0E944506812F0E94B7
:100CB00045061F9108950E9445060895EF92FF9200
:100CC0000F931F93DF93CF93CDB7DEB72B970FB65C
:100CD000F894DEBF0FBECDBF8E010F5F1F4F2BE01C
:100CE000F80111922A95E9F7A8012AE030E00E9464
:100CF00090073BE0E32EF12CEC0EFD1EF801808105
:100D0000882311F00E94AC020F5F1F4F0E151F05C4
:100D1000A9F72B960FB6F894DEBF0FBECDBFCF91CB
:100D2000DF911F910F91FF90EF900895EF92FF9246
:100D30000F931F93DF93CF93CDB7DEB72B970FB6EB
:100D4000F894DEBF0FBECDBF8E010F5F1F4F2BE0AB
:100D5000F80111922A95E9F7A8012AE030E00E94F3
:100D60005C074CE0E42EF12CEC0EFD1EF8018081B6
:100D7000882311F00E94AC020F5F1F4F0E151F0554
:100D8000A9F72B960FB6F894DEBF0FBECDBFCF915B
:100D9000DF911F910F91FF90EF900895EF92FF92D6
:100DA0000F931F93DF93CF9300D000D000D0CDB727
:100DB000DEB78E010F5F1F4F26E0F80111922A95D2
:100DC000E9F7B8014AE050E00E94B50756E0E52E89
:100DD000F12CEC0EFD1EF8018081882311F00E9499
:100DE000AC020F5F1F4F0E151F05A9F726960FB611
:100DF000F894DEBF0FBECDBFCF91DF911F910F9151
:100E0000FF90EF900895EF92FF920F931F93DF935F
:100E1000CF93CDB7DEB727970FB6F894DEBF0FBEDE
:100E2000CDBF8E010F5F1F4F27E0F80111922A9569
:100E3000E9F7B8014AE050E00E943B0768E0E62E7F
:100E4000F12CEC0EFD1EF8018081882311F00E9428
:100E5000AC020F5F1F4F0E151F05A9F727960FB69F
:100E6000F894DEBF0FBECDBFCF91DF911F910F91E0
:100E7000FF90EF900895FB019F01E8944230C4F089
:100E80004532B4F44A3029F497FB1EF490958195CD
:100E90009F4F642F77270E94DB07805D8A330CF019
:100EA000895D8193CB010097A1F716F45DE2519320
:100EB0001082C9010C94CB07FA01CF93FF93EF93F3
:100EC000223044F1253234F5C22FE894CA3049F477
:100ED00097FB3EF490958095709561957F4F8F4F6D
:100EE0009F4F2C2F332744275527FF93EF930E94C2
:100EF000EF07EF91FF91605D6A330CF0695D6193DC
:100F0000B901CA01605070408040904051F716F41A
:100F1000CDE2C19310828F919F91CF910C94CB071A
:100F2000FA01CF93FF93EF932230CCF02532BCF43B
:100F3000C22F2C2F332744275527FF93EF930E946E
:100F4000EF07EF91FF91605D6A330CF0695D61938B
:100F5000B901CA01605070408040904051F7108242
:100F60008F919F91CF910C94CB07FB019F01423051
:100F700074F0453264F4642F77270E94DB07805DAC
:100F80008A330CF0895D8193CB010097A1F7108221
:100F9000C9010C94CB07DC01FC01672F7191772309
:100FA000E1F7329704C07C916D9370836291AE1724
:100FB000BF07C8F30895AA1BBB1B51E107C0AA1FB6
:100FC000BB1FA617B70710F0A61BB70B881F991FEA
:100FD0005A95A9F780959095BC01CD010895A1E29D
:100FE0001A2EAA1BBB1BFD010DC0AA1FBB1FEE1FA3
:100FF000FF1FA217B307E407F50720F0A21BB30BEE
:10100000E40BF50B661F771F881F991F1A9469F769
:1010100060957095809590959B01AC01BD01CF01C5
:061020000895F894FFCFD3
:1010260000000100040005000600070000000100A2
:10103600020003000400050000E1000000000800B3
:00000001FF
