:100000000C9456000C9460000C9460000C946000FA
:100010000C9460000C9460000C9460000C946000E0
:100020000C9460000C9460000C9460000C946000D0
:100030000C9460000C9460000C9460000C946000C0
:100040000C9460000C9460000C9460000C946000B0
:100050000C9460000C9460000C9460000C946000A0
:100060000C9460000C9460000C9460000C94600090
:100070000C9460000C9460000C9460000C94600080
:100080000C9460000C9460000C9460000C94600070
:100090000C9460000C9460000C9460000C94600060
:1000A0000C9460000C9460000C94600011241FBE3E
:1000B000CFEFDAE0DEBFCDBF0E9462000C9481007A
:1000C0000C94000080E88093610010926100569AC1
:1000D0005E9A80E197E220E931E0F9013197F1F78A
:1000E0000197D9F740E420E931E0569A8BB1842793
:1000F0008BB980E197E2F9013197F1F70197D9F7D0
:06010000F4CFF894FFCFDC
:00000001FF
