:100000000C94F8000C9415010C9415010C94150136
:100010000C9415010C9415010C9415010C94150108
:100020000C9415010C9415010C945E080C9499081D
:100030000C9415010C9415010C9415010C941501E8
:100040000C9415010C9415010C9415010C941501D8
:100050000C9415010C9415010C9415010C941501C8
:100060000C9415010C9415010C9415010C941501B8
:100070000C9415010C9415010C9415010C941501A8
:100080000C9415010C9415010C9415010C94150198
:100090000C9415010C9415010C9415010C94150188
:1000A0000C9415010C9415010C941501FB07F8072D
:1000B000F507F207EF07EC07E907E607E307E007B4
:1000C000DD07DA07D707D407D107CE07CB07C80764
:1000D000C507C207BF07BC07B907B607B307B00714
:1000E000AD07AA07A707A407A1079E079B079807C4
:1000F000950792078F078C07890786078307800774
:100100007D077A077707740771076E076B07680723
:10011000650762075F075C075907560753075007D3
:100120004D074A074707440741073E073B070A2098
:100130006E6F74207265616479200A2000000100EE
:10014000007101120002000083014300030000C699
:10015000010401030904CA011202030904DE0106B5
:1001600003030904E601080001C112018036018180
:10017000361201000202000010C0167A04000101CC
:1001800002030109024300020100C0320904000019
:1001900001020201000524001001052401010104EF
:1001A0002402060524060001070582031000400909
:1001B000040100020A0000000705030240000007D6
:1001C0000584024000000403090412034A002E00C3
:1001D00020004600690065006E006500000006030F
:1001E0004D003200000008033400310030000000F0
:1001F00011241FBECFEFDAE0DEBFCDBF11E0A0E0DB
:10020000B1E0E8EEFBE102C005900D92A034B10729
:10021000D9F711E0A0E4B1E001C01D92A634B10706
:10022000E1F70E9411040C94F20D0C940000DF938E
:10023000CF93CDB7DEB768970FB6F894DEBF0FBE89
:10024000CDBF9C0180917C00806480937C00809174
:100250007C008F7780937C0080917A00816080930E
:100260007A0080917A00826080937A0080917A008F
:10027000846080937A00DE011196E0E2F1E088E18B
:1002800001900D928150E1F7FE013196D90140E0D5
:1002900050E061E070E046305105F4F42D913C915E
:1002A00011972130310551F480917E00008002C009
:1002B000220F331F0A94E2F7822B0BC020917E009D
:1002C000CB01008002C0880F991F0A94E2F7809545
:1002D000822380937E0020C046305105E9F02D91A5
:1002E0003C9111972130310551F480917D000080BF
:1002F00002C0220F331F0A94E2F7822B0BC0209119
:100300007D00CB01008002C0880F991F0A94E2F79C
:100310008095822380937D004F5F5F4F32961296C7
:100320004C30510509F0B7CF68960FB6F894DEBF90
:100330000FBECDBFCF91DF910895AC01FB0181E0ED
:1003400090E007C040FF02C0918380835595479598
:10035000329614161506B4F3CB010895FC0186817C
:100360009781892B21F480917B008F7D03C0809140
:100370007B00806280937B0084819581892B21F4AE
:1003800080917C008B7F03C080917C00846080938F
:100390007C0082819381892B21F480917C008D7F68
:1003A00003C080917C00826080937C008081918179
:1003B000892B21F480917C008E7F03C080917C008A
:1003C000816080937C0080917A00806880937A00BD
:1003D00080917A00806480937A00089580917A00F9
:1003E00084FD03C02FEF3FEF09C0209178003091CA
:1003F000790080917A00806180937A00C901089524
:10040000EF92FF920F931F93CF93DF937C01EB0149
:100410008A010C171D07F4F0C8018C1B9D0B62E0CC
:1004200070E00E94090D6C0F7D1FFB01EE0FFF1F96
:10043000EE0DFF1D0190F081E02DE217F30761F052
:100440002E173F0724F48B0101501040E2CFEB013F
:100450002196DFCF6FEF7FEFCB01DF91CF911F911F
:100460000F91FF90EF900895EF92FF920F931F93DB
:10047000CF93DF93FC01CB018A01F22EE32E422FB2
:10048000532F9A01E9018E1B9F0BB8010E94090DA1
:100490009B0140E050E007C0CF01821B930B899382
:1004A00099934F5F5F4FE20FF31F04171507A4F7EF
:1004B0008F2D9E2DDF91CF911F910F91FF90EF9087
:1004C00008956F927F928F929F92AF92BF92CF9238
:1004D000DF92EF92FF920F931F937B018C016627AF
:1004E00057FD6095762FCB01BA010E941A0C9B0133
:1004F000AC01609100017091010180910201909125
:1005000003010E947F0B3B014C01A80197010E944F
:10051000A60C20E030E040E05FE30E94A60C0E94C1
:10052000E70BE8E8F0E0718360836081718180E02F
:1005300090E00E94180C5B016C0160E070E080E8C4
:100540009FE3A80197010E941A0B7B018C01C40153
:10055000B30120E030E040E05FE30E94A60C9B0185
:10056000AC01C801B7010E94A60C9B01AC01C601F9
:10057000B5010E941B0B0E94E70B709387006093EC
:100580008600259AA0E8B0E08C9182608C93E1E827
:10059000F0E08081886080838081806180838C919D
:1005A00080688C9380818160808380818260808379
:1005B0001F910F91FF90EF90DF90CF90BF90AF9081
:1005C0009F908F907F906F9008956F927F928F92FF
:1005D0009F92AF92BF92CF92DF92EF92FF920F93D2
:1005E0001F937B018C01662757FD6095762FCB0109
:1005F000BA010E941A0C9B01AC016091000170913C
:10060000010180910201909103010E947F0B3B0147
:100610004C01A80197010E94A60C20E030E040E0C8
:100620005FE30E94A60C0E94E70BE8E9F0E071830B
:1006300060836081718180E090E00E94180C5B0112
:100640006C0160E070E080E89FE3A80197010E94E0
:100650001A0B7B018C01C401B30120E030E040E0C3
:100660005FE30E94A60C9B01AC01C801B7010E9488
:10067000A60C9B01AC01C601B5010E941B0B0E9498
:10068000E70B70939700609396003E9AA0E9B0E064
:100690008C9182608C93E1E9F0E0808188608083B6
:1006A0008081806180838C9180688C93808181605F
:1006B00080838081826080831F910F91FF90EF90F3
:1006C000DF90CF90BF90AF909F908F907F906F9072
:1006D00008956F927F928F929F92AF92BF92CF9226
:1006E000DF92EF92FF920F931F937B018C0166279D
:1006F00057FD6095762FCB01BA010E941A0C9B0121
:10070000AC0160E074E284E796E40E947F0B3B0159
:100710004C01A80197010E94A60C20E030E040E0C7
:100720005FE30E94A60C0E94E70B68BD68B570E00D
:10073000882777FD8095982F0E941A0C5B016C0129
:1007400060E070E080E89FE3A80197010E941A0B27
:100750007B018C01C401B30120E030E040E05FE3A5
:100760000E94A60C9B01AC01C801B7010E94A60C17
:100770009B01AC01C601B5010E941B0B0E94E70B57
:1007800067BD509A84B5816084BD84B5826084BDA4
:1007900085B5886085BD84B5806284BD85B584607B
:1007A00085BD85B5816085BD1F910F91FF90EF904C
:1007B000DF90CF90BF90AF909F908F907F906F9081
:1007C000089520E030E040EA50E40E947F0B20E0F2
:1007D00030E040E854E40E94A60C0E94E70BCB01F5
:1007E00008950F931F93DC01FB0157FF0AC08D9101
:1007F0009C91281739074CF0000F111FE00FF11FD3
:1008000004C0440F551FE40FF51F80819181609152
:100810000401709105010E94090DCB011F910F91F8
:1008200008952F923F924F925F926F927F928F9294
:100830009F92AF92BF92CF92DF92EF92FF920F936F
:100840001F93DF93CF93CDB7DEB7EE970FB6F89433
:10085000DEBF0FBECDBF8090040190900501640102
:1008600033E0CC0CDD1C3A95E1F7C818D90882E3D7
:1008700090E0889E3001899E700C989E700C112427
:1008800060E070E080EE9FE30E94E1037C0166E699
:1008900076E686E090E40E94E103BC011C012E187C
:1008A0003F080894211C311CC101880F991F08942E
:1008B000210831082DB73EB7281B390B0FB6F89425
:1008C0003EBF0FBE2DBFEDB7FEB73196ADB7BEB779
:1008D000A81BB90B0FB6F894BEBF0FBEADBFADB627
:1008E000BEB60894A11CB11C2DB73EB7281B390B0E
:1008F0000FB6F8943EBF0FBE2DBF0DB71EB70F5FEA
:100900001F4FEDAFFEAFC701A1019F010E9434024E
:1009100080E090E0B301A10195010E9434020BAF89
:100920001CAF80E090E0B601A10198010E94340262
:1009300066E676E686EE9FE30E94E1037C016AE9C3
:1009400079E989E090E40E94E103BC012C014E1892
:100950005F080894411C511CC201880F991F08941C
:1009600041085108ADB7BEB7A81BB90B0FB6F89434
:10097000BEBF0FBEADBFEDB7FEB731962DB73EB7C8
:10098000281B390B0FB6F8943EBF0FBE2DBFADB676
:10099000BEB60894A11CB11CADB7BEB7A81BB90B5D
:1009A0000FB6F894BEBF0FBEADBF0DB71EB70F5F39
:1009B0001F4FE9AFFAAFC701A2019F010E943402A5
:1009C00080E090E0B301A20195010E9434020FABD8
:1009D00018AF80E090E0B601A20198010E943402B5
:1009E0006DEC7CEC8CEC9FE30E94E1037C0160E009
:1009F00070E080E090E40E94E103BC015C01AE186D
:100A0000BF080894A11CB11CC501880F991F089448
:100A1000A108B1082DB73EB7281B390B0FB6F894C3
:100A20003EBF0FBE2DBFEDB7FEB73196ADB7BEB717
:100A3000A81BB90B0FB6F894BEBF0FBEADBFCDB6A5
:100A4000DEB60894C11CD11C2DB73EB7281B390B4C
:100A50000FB6F8943EBF0FBE2DBF0DB71EB70F5F88
:100A60001F4FEDABFEABC701A5019F010E943402F1
:100A700080E090E0B301A50196010E9434020BAB27
:100A80001CAB880C991C80E090E0B401A501980192
:100A90000E943402DE015996E8E0F1E088E101901D
:100AA0000D928150E1F7CE0149960E94170188E02E
:100AB000FE013196DF01282F1D922A95E9F78E015C
:100AC000075F1F4FD801282F1D922A95E9F7A1E152
:100AD000EA2EF12CEC0EFD1ED7011D928A95E9F746
:100AE00080E090E0BF010E949D014C0181E090E018
:100AF000B8010E949D019AAB89AB84E090E0B701F8
:100B00000E949D013C01C4010E94AE01CC24DD2461
:100B100080917A0084FFA2C0009178001091790042
:100B200080917A00806180937A0017FD97C0C6019A
:100B300063E070E00E94090D009771F50894C11CF4
:100B4000D11C8DAD9EAD60E070E0A10198010E94C6
:100B50000002AC018DAD9EAD6BAD7CAD9801810105
:100B60000E94F1037C0189A99AA90E94AE01002785
:100B7000F7FC0095102FC801B7010E941A0C20E065
:100B800030E048EC52E40E947F0B40910601509106
:100B900007010E946102BCCF8130910569F508947C
:100BA000C11CD11C89AD9AAD60E070E0A201980132
:100BB0000E940002AC0189AD9AAD6FA978AD980191
:100BC00082010E94F1037C01C3010E94AE01002753
:100BD000F7FC0095102FC801B7010E941A0C20E005
:100BE00030E048EC52E40E947F0B409106015091A6
:100BF00007010E94E5028CCF8230910579F50894B7
:100C0000C11CD11C8DA99EA960E070E0A5019801CE
:100C10000E940002AC018DA99EA96BA97CA9980134
:100C200085010E94F1037C01C4010E94AE010027EE
:100C3000F7FC0095102FC801B7010E941A0C20E0A4
:100C400030E048EC52E40E947F0B40910601509145
:100C50000701455050400E9469035ACF8EE291E04F
:100C60000E94040A55CF81E08093D70080EA8093E8
:100C7000D80082E189BD09B400FEFDCF80E98093F0
:100C8000D8001092E00010924201109243018CE0D3
:100C90008093E200789408958091420108959FB76F
:100CA000F89480914201882339F083E08093E90031
:100CB0008091E80085FD03C09FBF8FEF08952091CC
:100CC000F1008091E80085FD03C08BE68093E80089
:100CD0009FBF822F08959FB7F89480914201882387
:100CE00029F083E08093E9008091F2009FBF08958E
:100CF00080914201882371F09FB7F89483E080933C
:100D0000E9002BE602C02093E8008091E80085FD11
:100D1000FACF9FBF0895482F809142018823D9F1CF
:100D20002FB7F89484E08093E900809145018823EF
:100D300041F08091E80085FD02C02FBF12C01092E3
:100D400045019091E400975E34E08091E80085FDD4
:100D500013C02FBF8091E400891729F481E08093AC
:100D600045018FEF0895809142018823A1F02FB7AC
:100D7000F8943093E900E9CF4093F1008091E800C6
:100D800085FD03C08AE38093E80085E080934401F9
:100D90002FBF80E008958FEF0895282F80914201A2
:100DA000882351F09FB7F89484E08093E900809104
:100DB000E80085FD03C09FBF8FEF08952093F100E9
:100DC0008091E80085FD03C08AE38093E80085E018
:100DD000809344019FBF80E00895CF93DF93EC019F
:100DE00080914201882309F41CC13FB7F89484E044
:100DF0008093E90080914501882309F407C180911F
:100E0000E80085FD02C03FBF0CC110924501FEC045
:100E10009091E400975E8091E80085FD13C03FBF8C
:100E20008091E400891721F481E080934501F9C0A5
:100E300080914201882309F4F4C03FB7F89450939D
:100E4000E900E9CF8091F2002A2F281B822F90E041
:100E50006817790708F4262F822F90E081349105D6
:100E600008F0C6C08A5A9F4FFC01EE0FFF1F059085
:100E7000F491E02D099489918093F10089918093F8
:100E8000F10089918093F10089918093F10089911B
:100E90008093F10089918093F10089918093F10012
:100EA00089918093F10089918093F10089918093D9
:100EB000F10089918093F10089918093F1008991EB
:100EC0008093F10089918093F10089918093F100E2
:100ED00089918093F10089918093F10089918093A9
:100EE000F10089918093F10089918093F1008991BB
:100EF0008093F10089918093F10089918093F100B2
:100F000089918093F10089918093F1008991809378
:100F1000F10089918093F10089918093F10089918A
:100F20008093F10089918093F10089918093F10081
:100F300089918093F10089918093F1008991809348
:100F4000F10089918093F10089918093F10089915A
:100F50008093F10089918093F10089918093F10051
:100F600089918093F10089918093F1008991809318
:100F7000F10089918093F10089918093F10089912A
:100F80008093F10089918093F10089918093F10021
:100F900089918093F10089918093F10089918093E8
:100FA000F10089918093F10089918093F1008991FA
:100FB0008093F10089918093F10089918093F100F1
:100FC00089918093F10089918093F10089918093B8
:100FD000F10089918093F10089918093F1008991CA
:100FE0008093F10089918093F10089918093F100C1
:100FF00089918093F1008091E80085FD02C0B09353
:10100000E800621B71094093440104C054E0A0E46D
:10101000BAE345E06115710509F0FACE3FBF80E003
:1010200001C08FEFDF91CF9108959FB7F894809121
:101030004401882341F084E08093E9008AE38093AF
:10104000E800109244019FBF089580913C010895EB
:1010500080913D01089580913E0108958091430162
:101060000895382F9FB7F89480914201882339F072
:1010700022E02093E9008091E80085FD03C09FBF36
:101080008FEF089581EA8093F10080E28093F10070
:101090001092F1001092F1001092F1001092F10004
:1010A0002093F1001092F1003093F1001092F100C2
:1010B0008AE38093E8009FBF80E008951F920F921B
:1010C0000FB60F9211248F939F938091E10010929D
:1010D000E100982F83FF11C01092E90081E0809316
:1010E000EB001092EC0082E18093ED0088E08093A9
:1010F000F000109242011092430192FF13C08091C0
:101100004201882379F080914401882359F081506D
:1011100080934401882331F484E08093E9008AE3DA
:101120008093E8009F918F910F900FBE0F901F90BA
:1011300018951F920F920FB60F9211240F931F93C1
:101140002F933F934F935F936F937F938F939F93CF
:10115000AF93BF93EF93FF931092E9008091E80063
:1011600083FF3CC14091F1003091F1008091F1008A
:10117000682F70E02091F100922F80E0682B792B8E
:101180008091F100A82FB0E02091F100922F80E033
:10119000A82BB92B1091F1000091F10082EF809300
:1011A000E800363009F05AC024E431E0A901455086
:1011B0005040F9013797859194918617970701F56B
:1011C000FA01859194918A179B07D1F49A012E5FB9
:1011D0003F4FF901659174912E5F3F4FF9014491A2
:1011E000212F30E0902F80E0282B392B2F3F310525
:1011F00019F010F02FEF30E0241758F4422F09C0F7
:10120000295F3F4F495F5F4FF1E02E363F0789F678
:10121000E5C05EEF8091E800282F30E0C9018570BD
:101220009070892BB9F322FDDCC0342F413108F0D6
:1012300030E1232FCB0106C0FC010196E491E0933D
:10124000F10021502223C1F7630F711D431B5093FE
:10125000E8004423F9F63031E9F2C3C0353061F4D7
:101260008EEF8093E8008091E80080FFFCCF862F0E
:1012700080688093E300B5C0393051F5442309F00C
:10128000ADC06093420110924301109244018EEF71
:101290008093E80087E691E021E02093E900FC01DB
:1012A0000196E491E093EB00EE2369F0AC014F5F0F
:1012B0005F4FFC0184918093EC00CA010196FA0112
:1012C00034913093ED002F5F253039F78EE181C0E6
:1012D000383061F4403809F081C08091E80080FF27
:1012E000FCCF809142018093F10050C0313289F4EB
:1012F000413A09F073C08091E80080FFFCCFE8E339
:10130000F1E081918093F10081E0EF33F807C9F7B4
:101310003DC03032A1F4413209F060C08091E80054
:1013200082FFFCCFE8E3F1E08091F100819381E05E
:10133000EF33F807C9F78BEF8093E80027C032320C
:1013400051F4413209F04AC0609343018091E800B2
:1013500080FFFCCF1BC03323E9F48091E80080FFBD
:10136000FCCF423811F080E00DC0A093E9008091DD
:10137000EB0090E025E0969587952A95E1F781703E
:101380001092E9008093F1001092F1008EEF8093AB
:10139000E80027C0313011F0333001F54230F1F46C
:1013A000672BE1F42A2F2F77822F81508430B0F4FD
:1013B0008EEF8093E8002093E900333079F089E1E3
:1013C0008093EB0081E090E002C0880F991F2A957E
:1013D000E2F78093EA001092EA0003C081E2809372
:1013E000EB00FF91EF91BF91AF919F918F917F9112
:1013F0006F915F914F913F912F911F910F910F909E
:101400000FBE0F901F9018951F93CF93DF93EC01A1
:10141000FE0121961491112349F01A3019F48DE040
:101420000E948B06812F0E948B06F2CFDF91CF9115
:101430001F910895982F8A3010F087E301C080E350
:10144000890F0E948B0608951F93182F82958F7025
:101450000E941A0A812F8F700E941A0A1F91089504
:101460001F93182F892F0E94240A812F0E94240A7B
:101470001F9108950E94240A0895EF92FF920F93FE
:101480001F93DF93CF93CDB7DEB72B970FB6F894AA
:10149000DEBF0FBECDBF8E010F5F1F4F2BE0F801E7
:1014A00011922A95E9F7A8012AE030E00E94850D03
:1014B0003BE0E32EF12CEC0EFD1EF8018081882329
:1014C00011F00E948B060F5F1F4F0E151F05A9F725
:1014D0002B960FB6F894DEBF0FBECDBFCF91DF9134
:1014E0001F910F91FF90EF900895EF92FF920F934D
:1014F0001F93DF93CF93CDB7DEB72B970FB6F8943A
:10150000DEBF0FBECDBF8E010F5F1F4F2BE0F80176
:1015100011922A95E9F7A8012AE030E00E94510DC6
:101520004CE0E42EF12CEC0EFD1EF80180818823A6
:1015300011F00E948B060F5F1F4F0E151F05A9F7B4
:101540002B960FB6F894DEBF0FBECDBFCF91DF91C3
:101550001F910F91FF90EF900895EF92FF920F93DC
:101560001F93DF93CF9300D000D000D0CDB7DEB76C
:101570008E010F5F1F4F26E0F80111922A95E9F7BF
:10158000B8014AE050E00E94AA0D56E0E52EF12C89
:10159000EC0EFD1EF8018081882311F00E948B065D
:1015A0000F5F1F4F0E151F05A9F726960FB6F8946B
:1015B000DEBF0FBECDBFCF91DF911F910F91FF9086
:1015C000EF900895EF92FF920F931F93DF93CF93C5
:1015D000CDB7DEB727970FB6F894DEBF0FBECDBFED
:1015E0008E010F5F1F4F27E0F80111922A95E9F74E
:1015F000B8014AE050E00E94300D68E0E62EF12C80
:10160000EC0EFD1EF8018081882311F00E948B06EC
:101610000F5F1F4F0E151F05A9F727960FB6F894F9
:10162000DEBF0FBECDBFCF91DF911F910F91FF9015
:10163000EF9008955058BB27AA270ED04DC13ED138
:1016400030F043D120F031F49F3F11F41EF433C148
:101650000EF4E095E7FB29C1E92F4FD180F3BA17CB
:10166000620773078407950718F071F49EF567C148
:101670000EF4E0950B2EBA2FA02D0B01B9019001AD
:101680000C01CA01A0011124FF27591B99F0593FF1
:1016900050F4503E68F11A16F040A22F232F342F39
:1016A0004427585FF3CF469537952795A795F04087
:1016B0005395C9F77EF41F16BA0B620B730B840B9C
:1016C000BAF09150A1F0FF0FBB1F661F771F881F54
:1016D000C2F70EC0BA0F621F731F841F48F48795AC
:1016E00077956795B795F7959E3F08F0B3CF93959B
:1016F000880F08F09927EE0F9795879508950CD0DD
:10170000EBC0E3D040F0DAD030F021F45F3F19F0C5
:10171000CCC0511115C1CFC0F0D098F39923C9F3B3
:101720005523B1F3951B550BBB27AA2762177307E7
:10173000840738F09F5F5F4F220F331F441FAA1F9B
:10174000A9F333D00E2E3AF0E0E830D0915050405B
:10175000E695001CCAF729D0FE2F27D0660F771F09
:10176000881FBB1F261737074807AB07B0E809F0EB
:10177000BB0B802DBF01FF2793585F4F2AF09E3F80
:10178000510568F092C0DCC05F3FECF3983EDCF39B
:10179000869577956795B795F7959F5FC9F7880FF9
:1017A000911D9695879597F90895E1E0660F771F4B
:1017B000881FBB1F621773078407BA0720F0621BDC
:1017C000730B840BBA0BEE1F88F7E095089504D0D5
:1017D0006894B111B5C0089598D088F09F5790F0E3
:1017E000B92F9927B751A0F0D1F0660F771F881F46
:1017F000991F1AF0BA95C9F712C0B13081F09FD085
:10180000B1E008959CC0672F782F8827B85F39F022
:10181000B93FCCF3869577956795B395D9F73EF4A4
:1018200090958095709561957F4F8F4F9F4F08954C
:10183000E89409C097FB3EF490958095709561956A
:101840007F4F8F4F9F4F9923A9F0F92F96E9BB2720
:101850009395F695879577956795B795F111F8CF9C
:10186000FAF4BB0F11F460FF1BC06F5F7F4F8F4F07
:101870009F4F16C0882311F096E911C0772321F0FD
:101880009EE8872F762F05C0662371F096E8862F95
:1018900070E060E02AF09A95660F771F881FDAF7EC
:1018A000880F9695879597F9089597F99F6780E82F
:1018B00070E060E008959FEF80EC089500240A94A2
:1018C0001616170618060906089500240A9412161B
:1018D0001306140605060895092E0394000C11F44E
:1018E000882352F0BB0F40F4BF2B11F460FF04C0FB
:1018F0006F5F7F4F8F4F9F4F089557FD9058440F54
:10190000551F59F05F3F71F04795880F97FB991F5E
:1019100061F09F3F79F0879508951216130614061B
:10192000551FF2CF4695F1DF08C0161617061806A8
:10193000991FF1CF86957105610508940895E89483
:10194000BB2766277727CB0197F908950BD0C4CF23
:10195000B5DF28F0BADF18F0952309F0A6CFABCF9A
:101960001124EECFCADFA0F3959FD1F3950F50E07D
:10197000551F629FF001729FBB27F00DB11D639F41
:10198000AA27F00DB11DAA1F649F6627B00DA11DE7
:10199000661F829F2227B00DA11D621F739FB00D8D
:1019A000A11D621F839FA00D611D221F749F3327FD
:1019B000A00D611D231F849F600D211D822F762F96
:1019C0006A2F11249F5750408AF0E1F088234AF093
:1019D000EE0FFF1FBB1F661F771F881F91505040DF
:1019E000A9F79E3F510570F060CFAACF5F3FECF39F
:1019F000983EDCF3869577956795B795F795E795CB
:101A00009F5FC1F7FE2B880F911D9695879597F9DB
:101A1000089597FB092E07260AD077FD04D00CD035
:101A200006D000201AF4709561957F4F0895F6F75F
:101A3000909581959F4F0895AA1BBB1B51E107C04C
:101A4000AA1FBB1FA617B70710F0A61BB70B881F4E
:101A5000991F5A95A9F780959095BC01CD010895DD
:101A6000FB019F01E8944230C4F04532B4F44A309F
:101A700029F497FB1EF4909581959F4F642F77274B
:101A80000E941C0D805D8A330CF0895D8193CB012F
:101A90000097A1F716F45DE251931082C9010C94EE
:101AA000C00DFA01CF93FF93EF93223044F125321A
:101AB00034F5C22FE894CA3049F497FB3EF4909570
:101AC0008095709561957F4F8F4F9F4F2C2F3327B7
:101AD00044275527FF93EF930E94D00DEF91FF917C
:101AE000605D6A330CF0695D6193B901CA016050B1
:101AF00070408040904051F716F4CDE2C1931082BF
:101B00008F919F91CF910C94C00DFA01CF93FF93C9
:101B1000EF932230CCF02532BCF4C22F2C2F332788
:101B200044275527FF93EF930E94D00DEF91FF912B
:101B3000605D6A330CF0695D6193B901CA01605060
:101B400070408040904051F710828F919F91CF91CB
:101B50000C94C00DFB019F01423074F0453264F4D7
:101B6000642F77270E941C0D805D8A330CF0895DFD
:101B70008193CB010097A1F71082C9010C94C00D8D
:101B8000DC01FC01672F71917723E1F7329704C0E4
:101B90007C916D9370836291AE17BF07C8F308956F
:101BA000A1E21A2EAA1BBB1BFD010DC0AA1FBB1F61
:101BB000EE1FFF1FA217B307E407F50720F0A21BD3
:101BC000B30BE40BF50B661F771F881F991F1A9440
:101BD00069F760957095809590959B01AC01BD016A
:081BE000CF010895F894FFCF36
:101BE80000007A4764001E000100010001000000A7
:101BF80000000000000000000000000000000000DD
:101C080000000100040005000600070000000100B4
:101C1800020003000400050000E1000000000800C5
:00000001FF
