:100000000C9453010C9470010C9470010C947001C9
:100010000C9470010C9470010C9470010C9470019C
:100020000C9470010C9470010C94A9050C94E405D7
:100030000C9470010C9470010C9470010C9470017C
:100040000C9470010C9470010C9470010C9470016C
:100050000C9470010C9470010C9470010C9470015C
:100060000C9470010C9470010C9470010C9470014C
:100070000C9470010C9470010C9470010C9470013C
:100080000C9470010C9470010C9470010C9470012C
:100090000C9470010C9470010C9470010C9470011C
:1000A0000C9470010C9470010C947001460543058A
:1000B00040053D053A053705340531052E052B056C
:1000C0002805250522051F051C051905160513051C
:1000D00010050D050A05070504050105FE04FB04CE
:1000E000F804F504F204EF04EC04E904E604E30484
:1000F000E004DD04DA04D704D404D104CE04CB0434
:10010000C804C504C204BF04BC04B904B604B304E3
:10011000B004AD04AA04A704A404A1049E049B0493
:100120009804950492048F048C04890486040A20A0
:1001300074696D6520636F756E7465722076616C8D
:100140007565200A000A204F4352412076616C7584
:1001500065200A000A204F4352422076616C756583
:10016000200A000A206E65772076616C7565206133
:10017000667465722077616974696E6720666F7254
:1001800020302E3035207365636F6E6473200A0053
:100190000A2074696D6520636F756E7465722076D0
:1001A000616C7565200A000A204F43524120766138
:1001B0006C7565200A000A204F4352422076616C1C
:1001C0007565200A000A206E65772076616C75657A
:1001D0002061667465722077616974696E67206654
:1001E0006F7220302E3035207365636F6E6473201C
:1001F0000A0000010000260212000200003802433B
:10020000000300007B0204010309047F02120203C1
:100210000904930206030309049B02080001C112AA
:100220000180360181361201000202000010C01662
:100230007A0400010102030109024300020100C027
:10024000320904000001020201000524001001052A
:100250002401010104240206052406000107058289
:100260000310004009040100020A00000007050312
:100270000240000007058402400000040309041244
:10028000034A002E0020004600690065006E0065EC
:1002900000000006034D0032000000080334003166
:1002A00000300000000011241FBECFEFDAE0DEBFF7
:1002B000CDBF11E0A0E0B1E0E8E5F6E102C00590B5
:1002C0000D92AC30B107D9F711E0ACE0B1E001C05C
:1002D0001D92A031B107E1F70E947A020C942A0B1B
:1002E0000C9400006F927F928F929F92AF92BF9278
:1002F000CF92DF92EF92FF920F931F937B018C01BD
:10030000662757FD6095762FCB01BA010E946509DB
:100310009B01AC016091000170910101809102018B
:10032000909103010E94CA083B014C01A80197016A
:100330000E94F10920E030E040E05FE30E94F10913
:100340000E943209E8E8F0E0718360836081718186
:1003500080E090E00E9463095B016C0160E070E066
:1003600080E89FE3A80197010E9465087B018C014A
:10037000C401B30120E030E040E05FE30E94F109F6
:100380009B01AC01C801B7010E94F1099B01AC01BE
:10039000C601B5010E9466080E9432097093870069
:1003A00060938600259AA0E8B0E08C9182608C93DF
:1003B000E1E8F0E0808188608083808180618083D3
:1003C0008C9180688C938081816080838081826041
:1003D00080831F910F91FF90EF90DF90CF90BF909F
:1003E000AF909F908F907F906F9008956F927F92C3
:1003F0008F929F92AF92BF92CF92DF92EF92FF9235
:100400000F931F937B018C01662757FD6095762F14
:10041000CB01BA010E9465099B01AC01609100010A
:100420007091010180910201909103010E94CA081C
:100430003B014C01A80197010E94F10920E030E046
:1004400040E05FE30E94F1090E943209E8E9F0E030
:10045000718360836081718180E090E00E94630914
:100460005B016C0160E070E080E89FE3A801970108
:100470000E9465087B018C01C401B30120E030E0DB
:1004800040E05FE30E94F1099B01AC01C801B701A4
:100490000E94F1099B01AC01C601B5010E946608EA
:1004A0000E94320970939700609396003E9AA0E9EB
:1004B000B0E08C9182608C93E1E9F0E0808188600B
:1004C00080838081806180838C9180688C9380811F
:1004D000816080838081826080831F910F91FF9073
:1004E000EF90DF90CF90BF90AF909F908F907F90D4
:1004F0006F900895EF92FF920F931F930E947E03D7
:1005000060910001709101018091020190910301BD
:1005100020E030E040E251E40E94F10920E030E0C8
:1005200040E752E40E94CA0820E030E040E05FE388
:100530000E94F10920E030E040E05FE30E94F10911
:100540007B018C010E94320968BD68B570E0882784
:1005500077FD8095982F0E946509A80197010E9458
:1005600066080E94320967BD509A84B5816084BDD7
:1005700084B5826084BD85B5886085BD84B58062A0
:1005800084BD85B5846085BD83E691E00E944F07F8
:1005900084E591E00E944F0768B570E080E090E04C
:1005A0000E94C00785E491E00E944F0767B570E0A4
:1005B00080E090E00E94C0078EE291E00E944F0729
:1005C00086B590E00E942D089BCF6F927F928F920C
:1005D0009F92AF92BF92CF92DF92EF92FF920F93D2
:1005E0001F937B018C01609100017091010180914A
:1005F00002019091030120E030E040E850E40E94C5
:10060000F10920E030E040E752E40E94CA083B01D3
:100610004C01A80197010E94F10920E030E040E080
:100620005FE30E94F1090E94320968BD68B570E07D
:10063000882777FD8095982F0E9465095B016C01E2
:1006400060E070E080E89FE3A80197010E946508E0
:100650007B018C01C401B30120E030E040E05FE3A6
:100660000E94F1099B01AC01C801B7010E94F10988
:100670009B01AC01C601B5010E9466080E943209C7
:1006800067BD509A84B5816084BD84B5826084BDA5
:1006900085B5886085BD84B5806284BD85B584607C
:1006A00085BD85EC91E00E944F0786EB91E00E94AA
:1006B0004F0768B570E080E090E00E94C00787EACD
:1006C00091E00E944F0767B570E080E090E00E94E3
:1006D000C00780E991E00E944F0786B590E00E9434
:1006E0002D081F910F91FF90EF90DF90CF90BF905A
:1006F000AF909F908F907F906F90089581E080934E
:10070000D70080EA8093D80082E189BD09B400FE59
:10071000FDCF80E98093D8001092E00010920C0188
:1007200010920D018CE08093E200789408958091FE
:100730000C0108959FB7F89480910C01882339F03B
:1007400083E08093E9008091E80085FD03C09FBFAE
:100750008FEF08952091F1008091E80085FD03C09E
:100760008BE68093E8009FBF822F08959FB7F8948F
:1007700080910C01882329F083E08093E900809127
:10078000F2009FBF089580910C01882371F09FB7FC
:10079000F89483E08093E9002BE602C02093E80000
:1007A0008091E80085FDFACF9FBF0895482F809182
:1007B0000C018823D9F12FB7F89484E08093E900E5
:1007C00080910F01882341F08091E80085FD02C0EF
:1007D0002FBF12C010920F019091E400975E34E099
:1007E0008091E80085FD13C02FBF8091E400891738
:1007F00029F481E080930F018FEF089580910C011F
:100800008823A1F02FB7F8943093E900E9CF409303
:10081000F1008091E80085FD03C08AE38093E80041
:1008200085E080930E012FBF80E008958FEF08953B
:10083000282F80910C01882351F09FB7F89484E011
:100840008093E9008091E80085FD03C09FBF8FEF92
:1008500008952093F1008091E80085FD03C08AE3AC
:100860008093E80085E080930E019FBF80E00895AB
:10087000CF93DF93EC0180910C01882309F41CC114
:100880003FB7F89484E08093E90080910F018823BA
:1008900009F407C18091E80085FD02C03FBF0CC18B
:1008A00010920F01FEC09091E400975E8091E800E5
:1008B00085FD13C03FBF8091E400891721F481E0DA
:1008C00080930F01F9C080910C01882309F4F4C0D2
:1008D0003FB7F8945093E900E9CF8091F2002A2FB6
:1008E000281B822F90E06817790708F4262F822FA3
:1008F00090E08134910508F0C6C08A5A9F4FFC01F0
:10090000EE0FFF1F0590F491E02D099489918093DB
:10091000F10089918093F10089918093F100899190
:100920008093F10089918093F10089918093F10087
:1009300089918093F10089918093F100899180934E
:10094000F10089918093F10089918093F100899160
:100950008093F10089918093F10089918093F10057
:1009600089918093F10089918093F100899180931E
:10097000F10089918093F10089918093F100899130
:100980008093F10089918093F10089918093F10027
:1009900089918093F10089918093F10089918093EE
:1009A000F10089918093F10089918093F100899100
:1009B0008093F10089918093F10089918093F100F7
:1009C00089918093F10089918093F10089918093BE
:1009D000F10089918093F10089918093F1008991D0
:1009E0008093F10089918093F10089918093F100C7
:1009F00089918093F10089918093F100899180938E
:100A0000F10089918093F10089918093F10089919F
:100A10008093F10089918093F10089918093F10096
:100A200089918093F10089918093F100899180935D
:100A3000F10089918093F10089918093F10089916F
:100A40008093F10089918093F10089918093F10066
:100A500089918093F10089918093F100899180932D
:100A6000F10089918093F10089918093F10089913F
:100A70008093F10089918093F10089918093F10036
:100A800089918093F10089918093F1008091E80031
:100A900085FD02C0B093E800621B710940930E010E
:100AA00004C054E0A0E4BAE345E06115710509F023
:100AB000FACE3FBF80E001C08FEFDF91CF91089564
:100AC0009FB7F89480910E01882341F084E08093D1
:100AD000E9008AE38093E80010920E019FBF089519
:100AE00080910801089580910901089580910A017B
:100AF000089580910D010895382F9FB7F894809143
:100B00000C01882339F022E02093E9008091E8006D
:100B100085FD03C09FBF8FEF089581EA8093F100A8
:100B200080E28093F1001092F1001092F100109297
:100B3000F1001092F1002093F1001092F100309337
:100B4000F1001092F1008AE38093E8009FBF80E0FB
:100B500008951F920F920FB60F9211248F939F93B7
:100B60008091E1001092E100982F83FF11C0109254
:100B7000E90081E08093EB001092EC0082E1809329
:100B8000ED0088E08093F00010920C0110920D01AE
:100B900092FF13C080910C01882379F080910E019F
:100BA000882359F0815080930E01882331F484E02A
:100BB0008093E9008AE38093E8009F918F910F90E2
:100BC0000FBE0F901F9018951F920F920FB60F92A5
:100BD00011240F931F932F933F934F935F936F9322
:100BE0007F938F939F93AF93BF93EF93FF93109255
:100BF000E9008091E80083FF3CC14091F100309111
:100C0000F1008091F100682F70E02091F100922FA7
:100C100080E0682B792B8091F100A82FB0E0209123
:100C2000F100922F80E0A82BB92B1091F1000091D8
:100C3000F10082EF8093E800363009F05AC029EFC6
:100C400031E0A90145505040F901379785919491C1
:100C50008617970701F5FA01859194918A179B07EA
:100C6000D1F49A012E5F3F4FF901659174912E5F87
:100C70003F4FF9014491212F30E0902F80E0282B45
:100C8000392B2F3F310519F010F02FEF30E02417EA
:100C900058F4422F09C0295F3F4F495F5F4FF2E090
:100CA00023323F0789F6E5C05EEF8091E800282FE8
:100CB00030E0C90185709070892BB9F322FDDCC04A
:100CC000342F413108F030E1232FCB0106C0FC0165
:100CD0000196E491E093F10021502223C1F7630FC4
:100CE000711D431B5093E8004423F9F63031E9F2BB
:100CF000C3C0353061F48EEF8093E8008091E80046
:100D000080FFFCCF862F80688093E300B5C0393028
:100D100051F5442309F0ADC060930C0110920D0110
:100D200010920E018EEF8093E8008CE192E021E0BA
:100D30002093E900FC010196E491E093EB00EE239F
:100D400069F0AC014F5F5F4FFC0184918093EC0030
:100D5000CA010196FA0134913093ED002F5F2530DE
:100D600039F78EE181C0383061F4403809F081C034
:100D70008091E80080FFFCCF80910C018093F1000E
:100D800050C0313289F4413A09F073C08091E800D3
:100D900080FFFCCFE4E0F1E081918093F10081E0FD
:100DA000EB30F807C9F73DC03032A1F4413209F009
:100DB00060C08091E80082FFFCCFE4E0F1E0809128
:100DC000F100819381E0EB30F807C9F78BEF809356
:100DD000E80027C0323251F4413209F04AC0609332
:100DE0000D018091E80080FFFCCF1BC03323E9F4A4
:100DF0008091E80080FFFCCF423811F080E00DC008
:100E0000A093E9008091EB0090E025E0969587950E
:100E10002A95E1F781701092E9008093F100109219
:100E2000F1008EEF8093E80027C0313011F03330AD
:100E300001F54230F1F4672BE1F42A2F2F77822F4E
:100E400081508430B0F48EEF8093E8002093E90065
:100E5000333079F089E18093EB0081E090E002C0CB
:100E6000880F991F2A95E2F78093EA001092EA0012
:100E700003C081E28093EB00FF91EF91BF91AF91AE
:100E80009F918F917F916F915F914F913F912F91A2
:100E90001F910F910F900FBE0F901F9018951F93E9
:100EA000CF93DF93EC01FE0121961491112349F0B9
:100EB0001A3019F48DE00E94D603812F0E94D603C8
:100EC000F2CFDF91CF911F910895982F8A3010F0C3
:100ED00087E301C080E3890F0E94D60308951F9322
:100EE000182F82958F700E946507812F8F700E9446
:100EF00065071F9108951F93182F892F0E946F0770
:100F0000812F0E946F071F9108950E946F07089517
:100F1000EF92FF920F931F93DF93CF93CDB7DEB77E
:100F20002B970FB6F894DEBF0FBECDBF8E010F5FBB
:100F30001F4F2BE0F80111922A95E9F7A8012AE04A
:100F400030E00E94A90A3BE0E32EF12CEC0EFD1EDE
:100F5000F8018081882311F00E94D6030F5F1F4F94
:100F60000E151F05A9F72B960FB6F894DEBF0FBE1E
:100F7000CDBFCF91DF911F910F91FF90EF9008951A
:100F8000EF92FF920F931F93DF93CF93CDB7DEB70E
:100F90002B970FB6F894DEBF0FBECDBF8E010F5F4B
:100FA0001F4F2BE0F80111922A95E9F7A8012AE0DA
:100FB00030E00E94750A4CE0E42EF12CEC0EFD1E90
:100FC000F8018081882311F00E94D6030F5F1F4F24
:100FD0000E151F05A9F72B960FB6F894DEBF0FBEAE
:100FE000CDBFCF91DF911F910F91FF90EF900895AA
:100FF000EF92FF920F931F93DF93CF9300D000D017
:1010000000D0CDB7DEB78E010F5F1F4F26E0F8018D
:1010100011922A95E9F7B8014AE050E00E94CE0A01
:1010200056E0E52EF12CEC0EFD1EF80180818823A0
:1010300011F00E94D6030F5F1F4F0E151F05A9F771
:1010400026960FB6F894DEBF0FBECDBFCF91DF91CD
:101050001F910F91FF90EF900895EF92FF920F93E1
:101060001F93DF93CF93CDB7DEB727970FB6F894D2
:10107000DEBF0FBECDBF8E010F5F1F4F27E0F8010F
:1010800011922A95E9F7B8014AE050E00E94540A0B
:1010900068E0E62EF12CEC0EFD1EF801808188231D
:1010A00011F00E94D6030F5F1F4F0E151F05A9F701
:1010B00027960FB6F894DEBF0FBECDBFCF91DF915C
:1010C0001F910F91FF90EF9008955058BB27AA27CA
:1010D0000ED04DC13ED130F043D120F031F49F3FCE
:1010E00011F41EF433C10EF4E095E7FB29C1E92F9A
:1010F0004FD180F3BA17620773078407950718F07A
:1011000071F49EF567C10EF4E0950B2EBA2FA02D59
:101110000B01B90190010C01CA01A0011124FF27A4
:10112000591B99F0593F50F4503E68F11A16F0409F
:10113000A22F232F342F4427585FF3CF469537959E
:101140002795A795F0405395C9F77EF41F16BA0B63
:10115000620B730B840BBAF09150A1F0FF0FBB1F11
:10116000661F771F881FC2F70EC0BA0F621F731F5A
:10117000841F48F4879577956795B795F7959E3FB7
:1011800008F0B3CF9395880F08F09927EE0F979545
:10119000879508950CD0EBC0E3D040F0DAD030F062
:1011A00021F45F3F19F0CCC0511115C1CFC0F0D070
:1011B00098F39923C9F35523B1F3951B550BBB271E
:1011C000AA2762177307840738F09F5F5F4F220FCB
:1011D000331F441FAA1FA9F333D00E2E3AF0E0E8C4
:1011E00030D091505040E695001CCAF729D0FE2F10
:1011F00027D0660F771F881FBB1F261737074807A2
:10120000AB07B0E809F0BB0B802DBF01FF27935857
:101210005F4F2AF09E3F510568F092C0DCC05F3FEF
:10122000ECF3983EDCF3869577956795B795F7953F
:101230009F5FC9F7880F911D9695879597F9089537
:10124000E1E0660F771F881FBB1F621773078407D3
:10125000BA0720F0621B730B840BBA0BEE1F88F7E2
:10126000E095089504D06894B111B5C0089598D060
:1012700088F09F5790F0B92F9927B751A0F0D1F07F
:10128000660F771F881F991F1AF0BA95C9F712C009
:10129000B13081F09FD0B1E008959CC0672F782FC6
:1012A0008827B85F39F0B93FCCF386957795679575
:1012B000B395D9F73EF490958095709561957F4FE1
:1012C0008F4F9F4F0895E89409C097FB3EF4909587
:1012D0008095709561957F4F8F4F9F4F9923A9F00F
:1012E000F92F96E9BB279395F6958795779567959E
:1012F000B795F111F8CFFAF4BB0F11F460FF1BC0E2
:101300006F5F7F4F8F4F9F4F16C0882311F096E974
:1013100011C0772321F09EE8872F762F05C0662322
:1013200071F096E8862F70E060E02AF09A95660FDB
:10133000771F881FDAF7880F9695879597F9089594
:1013400097F99F6780E870E060E008959FEF80EC78
:10135000089500240A94161617061806090608951B
:1013600000240A9412161306140605060895092E81
:101370000394000C11F4882352F0BB0F40F4BF2BF0
:1013800011F460FF04C06F5F7F4F8F4F9F4F089530
:1013900057FD9058440F551F59F05F3F71F0479526
:1013A000880F97FB991F61F09F3F79F0879508950B
:1013B000121613061406551FF2CF4695F1DF08C02A
:1013C000161617061806991FF1CF86957105610547
:1013D00008940895E894BB2766277727CB0197F9EF
:1013E00008950BD0C4CFB5DF28F0BADF18F09523ED
:1013F00009F0A6CFABCF1124EECFCADFA0F3959FA3
:10140000D1F3950F50E0551F629FF001729FBB27EB
:10141000F00DB11D639FAA27F00DB11DAA1F649F97
:101420006627B00DA11D661F829F2227B00DA11D4A
:10143000621F739FB00DA11D621F839FA00D611DD0
:10144000221F749F3327A00D611D231F849F600DF1
:10145000211D822F762F6A2F11249F5750408AF02A
:10146000E1F088234AF0EE0FFF1FBB1F661F771FB6
:10147000881F91505040A9F79E3F510570F060CFF2
:10148000AACF5F3FECF3983EDCF38695779567959E
:10149000B795F795E7959F5FC1F7FE2B880F911DD4
:1014A0009695879597F90895FB019F01E89442303E
:1014B000C4F04532B4F44A3029F497FB1EF49095F9
:1014C00081959F4F642F77270E94F40A805D8A33AD
:1014D0000CF0895D8193CB010097A1F716F45DE2D2
:1014E00051931082C9010C94E40AFA01CF93FF933F
:1014F000EF93223044F1253234F5C22FE894CA30FC
:1015000049F497FB3EF490958095709561957F4FD7
:101510008F4F9F4F2C2F332744275527FF93EF934F
:101520000E94080BEF91FF91605D6A330CF0695DDA
:101530006193B901CA01605070408040904051F7FA
:1015400016F4CDE2C19310828F919F91CF910C94AC
:10155000E40AFA01CF93FF93EF932230CCF02532C7
:10156000BCF4C22F2C2F332744275527FF93EF932A
:101570000E94080BEF91FF91605D6A330CF0695D8A
:101580006193B901CA01605070408040904051F7AA
:1015900010828F919F91CF910C94E40AFB019F01DF
:1015A000423074F0453264F4642F77270E94F40AC5
:1015B000805D8A330CF0895D8193CB010097A1F7A0
:1015C0001082C9010C94E40ADC01FC01672F7191BF
:1015D0007723E1F7329704C07C916D937083629119
:1015E000AE17BF07C8F30895AA1BBB1B51E107C084
:1015F000AA1FBB1FA617B70710F0A61BB70B881FA3
:10160000991F5A95A9F780959095BC01CD01089531
:10161000A1E21A2EAA1BBB1BFD010DC0AA1FBB1FF6
:10162000EE1FFF1FA217B307E407F50720F0A21B68
:10163000B30BE40BF50B661F771F881F991F1A94D5
:1016400069F760957095809590959B01AC01BD01FF
:08165000CF010895F894FFCFCB
:0C16580000007A4700E1000000000800DC
:00000001FF
