:100000000C9453010C9470010C9470010C947001C9
:100010000C9470010C9470010C9470010C9470019C
:100020000C9470010C9470010C94B3040C94EE04C5
:100030000C9470010C9470010C9470010C9470017C
:100040000C9470010C9470010C9470010C9470016C
:100050000C9470010C9470010C9470010C9470015C
:100060000C9470010C9470010C9470010C9470014C
:100070000C9470010C9470010C9470010C9470013C
:100080000C9470010C9470010C9470010C9470012C
:100090000C9470010C9470010C9470010C9470011C
:1000A0000C9470010C9470010C94700150044D0478
:1000B0004A044704440441043E043B043804350424
:1000C00032042F042C0429042604230420041D04D4
:1000D0001A041704140411040E040B040804050484
:1000E0000204FF03FC03F903F603F303F003ED033B
:1000F000EA03E703E403E103DE03DB03D803D503EC
:10010000D203CF03CC03C903C603C303C003BD039B
:10011000BA03B703B403B103AE03AB03A803A5034B
:10012000A2039F039C0399039603930390030A2061
:100130004379636C65733A000A20707265737320AB
:100140006E756D6265723A000A204379636C65735F
:100150003A000A207072657373206E756D62657265
:100160003A00507265737320746865206275747408
:100170006F6E20352074696D657320617320666130
:10018000737420617320796F752063616E200A009B
:100190000A205072657373207468652062757474E8
:1001A0006F6E20746F20626567696E200A000920F7
:1001B0006D696C6C697365636F6E64730A000A2005
:1001C00050726576696F75732061766572616765D7
:1001D000207072657373200A000A204379636C658E
:1001E000733A000A207072657373206E756D6265D4
:1001F000723A0000010000270212000200003902DA
:1002000043000300007C020401030904800212027F
:10021000030904940206030309049C02080001C1B7
:10022000120180360181361201000202000010C066
:10023000167A0400010102030109024300020100D1
:10024000C03209040000010202010005240010016F
:100250000524010101042402060524060001070506
:10026000820310004009040100020A000000070593
:100270000302400000070584024000000403090453
:1002800012034A002E0020004600690065006E003F
:100290006500000006034D00320000000803340032
:1002A00031003000000011241FBECFEFDAE0DEBFC6
:1002B000CDBF11E0A0E0B1E0E2ECF3E102C00590B7
:1002C0000D92A830B107D9F711E0A8E0B1E001C064
:1002D0001D92AC30B107E1F70E9472010C94DF0966
:1002E0000C9400004F925F926F927F928F929F9238
:1002F000AF92BF92CF92DF92EF92FF920F931F9334
:10030000CF93DF930E948802809191008460809354
:100310009100809191008D7F809391008091910058
:100320008160809391003F98519A599844245524B4
:10033000C0E0D0E00F2EF0E0AF2EF0E0BF2EF0E0F6
:10034000CF2EF0E0DF2EF02D3799E0C00894411C4D
:10035000511CC20165E070E00E94F6084C01599AF8
:10036000379BFECF8114910409F071C080909600F4
:1003700090909700C815D90540F4B4016C1B7D0B13
:1003800080E090E00E9405081AC0BE0180E090E085
:100390000E9405089B01AC0160E070E080E897E4F2
:1003A0000E946F077B018C01B40180E090E00E9405
:1003B00005089B01AC01C801B7010E9470079B01B1
:1003C000AC01C601B5010E9470075B016C0183EEB0
:1003D00091E00E94590685E090E00E94020789EDB5
:1003E00091E00E94590680919600909197000E949A
:1003F00002078EEB91E00E945906C601B50120E08C
:1004000030E040E85EE30E9493082DEB37E346E8D6
:1004100058E30E94930820E030E04AE754E40E9449
:1004200093080E94D407DC01CB010E9437078EEAB3
:1004300091E00E94590680E991E00E94590682E607
:1004400091E00E945906E4014424552473CF81E0D1
:1004500088169104B9F4C0919600D091970082E576
:1004600091E00E94590681E090E00E94020788E432
:1004700091E00E94590680919600909197000E9409
:10048000020758CF6090960070909700C615D70568
:1004900040F4B3016C1B7D0B80E090E00E940508E6
:1004A0001AC0BE0180E090E00E9405089B01AC01EB
:1004B00060E070E080E897E40E946F077B018C01A8
:1004C000B30180E090E00E9405089B01AC01C801E7
:1004D000B7010E9470079B01AC01C601B5010E94E3
:1004E00070075B016C0188E391E00E945906C4012A
:1004F0000E9402078EE291E00E94590680919600C8
:10050000909197000E940207E3011ECF59981CCFDB
:1005100081E08093D70080EA8093D80082E189BD92
:1005200009B400FEFDCF80E98093D8001092E0006E
:1005300010920801109209018CE08093E2007894F7
:1005400008958091080108959FB7F894809108015B
:10055000882339F083E08093E9008091E80085FDED
:1005600003C09FBF8FEF08952091F1008091E800B4
:1005700085FD03C08BE68093E8009FBF822F08951E
:100580009FB7F89480910801882329F083E0809335
:10059000E9008091F2009FBF0895809108018823AF
:1005A00071F09FB7F89483E08093E9002BE602C0D6
:1005B0002093E8008091E80085FDFACF9FBF089561
:1005C000482F809108018823D9F12FB7F89484E04F
:1005D0008093E90080910B01882341F08091E8002D
:1005E00085FD02C02FBF12C010920B019091E40054
:1005F000975E34E08091E80085FD13C02FBF8091A5
:10060000E400891729F481E080930B018FEF0895AE
:10061000809108018823A1F02FB7F8943093E90066
:10062000E9CF4093F1008091E80085FD03C08AE3A3
:100630008093E80085E080930A012FBF80E0089551
:100640008FEF0895282F80910801882351F09FB7DC
:10065000F89484E08093E9008091E80085FD03C070
:100660009FBF8FEF08952093F1008091E80085FDF2
:1006700003C08AE38093E80085E080930A019FBF6E
:1006800080E00895CF93DF93EC01809108018823E7
:1006900009F41CC13FB7F89484E08093E90080918D
:1006A0000B01882309F407C18091E80085FD02C091
:1006B0003FBF0CC110920B01FEC09091E400975E09
:1006C0008091E80085FD13C03FBF8091E400891749
:1006D00021F481E080930B01F9C080910801882307
:1006E00009F4F4C03FB7F8945093E900E9CF809142
:1006F000F2002A2F281B822F90E06817790708F450
:10070000262F822F90E08134910508F0C6C08A5AC6
:100710009F4FFC01EE0FFF1F0590F491E02D09940F
:1007200089918093F10089918093F1008991809360
:10073000F10089918093F10089918093F100899172
:100740008093F10089918093F10089918093F10069
:1007500089918093F10089918093F1008991809330
:10076000F10089918093F10089918093F100899142
:100770008093F10089918093F10089918093F10039
:1007800089918093F10089918093F1008991809300
:10079000F10089918093F10089918093F100899112
:1007A0008093F10089918093F10089918093F10009
:1007B00089918093F10089918093F10089918093D0
:1007C000F10089918093F10089918093F1008991E2
:1007D0008093F10089918093F10089918093F100D9
:1007E00089918093F10089918093F10089918093A0
:1007F000F10089918093F10089918093F1008991B2
:100800008093F10089918093F10089918093F100A8
:1008100089918093F10089918093F100899180936F
:10082000F10089918093F10089918093F100899181
:100830008093F10089918093F10089918093F10078
:1008400089918093F10089918093F100899180933F
:10085000F10089918093F10089918093F100899151
:100860008093F10089918093F10089918093F10048
:1008700089918093F10089918093F100899180930F
:10088000F10089918093F10089918093F100899121
:100890008093F10089918093F10089918093F10018
:1008A0008091E80085FD02C0B093E800621B7109E9
:1008B00040930A0104C054E0A0E4BAE345E06115A6
:1008C000710509F0FACE3FBF80E001C08FEFDF91E4
:1008D000CF9108959FB7F89480910A01882341F041
:1008E00084E08093E9008AE38093E80010920A0193
:1008F0009FBF089580910401089580910501089596
:10090000809106010895809109010895382F9FB7BD
:10091000F89480910801882339F022E02093E900BF
:100920008091E80085FD03C09FBF8FEF089581EAA5
:100930008093F10080E28093F1001092F100109218
:10094000F1001092F1001092F1002093F10010924A
:10095000F1003093F1001092F1008AE38093E800F7
:100960009FBF80E008951F920F920FB60F9211243F
:100970008F939F938091E1001092E100982F83FF65
:1009800011C01092E90081E08093EB001092EC001E
:1009900082E18093ED0088E08093F00010920801DE
:1009A0001092090192FF13C080910801882379F009
:1009B00080910A01882359F0815080930A0188238D
:1009C00031F484E08093E9008AE38093E8009F910A
:1009D0008F910F900FBE0F901F9018951F920F923E
:1009E0000FB60F9211240F931F932F933F934F93A2
:1009F0005F936F937F938F939F93AF93BF93EF9387
:100A0000FF931092E9008091E80083FF3CC1409180
:100A1000F1003091F1008091F100682F70E0209199
:100A2000F100922F80E0682B792B8091F100A82FA4
:100A3000B0E02091F100922F80E0A82BB92B10910B
:100A4000F1000091F10082EF8093E800363009F068
:100A50005AC02AEF31E0A90145505040F9013797BB
:100A6000859194918617970701F5FA0185919491E4
:100A70008A179B07D1F49A012E5F3F4FF9016591C8
:100A800074912E5F3F4FF9014491212F30E0902F58
:100A900080E0282B392B2F3F310519F010F02FEF74
:100AA00030E0241758F4422F09C0295F3F4F495FB7
:100AB0005F4FF2E024323F0789F6E5C05EEF809198
:100AC000E800282F30E0C90185709070892BB9F3B8
:100AD00022FDDCC0342F413108F030E1232FCB015F
:100AE00006C0FC010196E491E093F100215022231D
:100AF000C1F7630F711D431B5093E8004423F9F6BF
:100B00003031E9F2C3C0353061F48EEF8093E800F4
:100B10008091E80080FFFCCF862F80688093E300FF
:100B2000B5C0393051F5442309F0ADC060930801D8
:100B30001092090110920A018EEF8093E8008DE176
:100B400092E021E02093E900FC010196E491E0931A
:100B5000EB00EE2369F0AC014F5F5F4FFC01849125
:100B60008093EC00CA010196FA0134913093ED00B4
:100B70002F5F253039F78EE181C0383061F440387D
:100B800009F081C08091E80080FFFCCF80910801CE
:100B90008093F10050C0313289F4413A09F073C0BA
:100BA0008091E80080FFFCCFE0E0F1E0819180934C
:100BB000F10081E0E730F807C9F73DC03032A1F419
:100BC000413209F060C08091E80082FFFCCFE0E094
:100BD000F1E08091F100819381E0E730F807C9F7F7
:100BE0008BEF8093E80027C0323251F4413209F094
:100BF0004AC0609309018091E80080FFFCCF1BC0D0
:100C00003323E9F48091E80080FFFCCF423811F0F3
:100C100080E00DC0A093E9008091EB0090E025E01A
:100C2000969587952A95E1F781701092E900809357
:100C3000F1001092F1008EEF8093E80027C0313070
:100C400011F0333001F54230F1F4672BE1F42A2F33
:100C50002F77822F81508430B0F48EEF8093E8009C
:100C60002093E900333079F089E18093EB0081E053
:100C700090E002C0880F991F2A95E2F78093EA005E
:100C80001092EA0003C081E28093EB00FF91EF91A4
:100C9000BF91AF919F918F917F916F915F914F9194
:100CA0003F912F911F910F910F900FBE0F901F90AA
:100CB00018951F93CF93DF93EC01FE0121961491B9
:100CC000112349F01A3019F48DE00E94E002812FBF
:100CD0000E94E002F2CFDF91CF911F910895982FEB
:100CE0008A3010F087E301C080E3890F0E94E002A0
:100CF00008951F93182F82958F700E946F06812F81
:100D00008F700E946F061F9108951F93182F892FCF
:100D10000E947906812F0E9479061F9108950E94F2
:100D200079060895EF92FF920F931F93DF93CF936D
:100D3000CDB7DEB72B970FB6F894DEBF0FBECDBF91
:100D40008E010F5F1F4F2BE0F80111922A95E9F7F2
:100D5000A8012AE030E00E9472093BE0E32EF12C6A
:100D6000EC0EFD1EF8018081882311F00E94E00244
:100D70000F5F1F4F0E151F05A9F72B960FB6F8949E
:100D8000DEBF0FBECDBFCF91DF911F910F91FF90BE
:100D9000EF900895EF92FF920F931F93DF93CF93FD
:100DA000CDB7DEB72B970FB6F894DEBF0FBECDBF21
:100DB0008E010F5F1F4F2BE0F80111922A95E9F782
:100DC000A8012AE030E00E943E094CE0E42EF12C1C
:100DD000EC0EFD1EF8018081882311F00E94E002D4
:100DE0000F5F1F4F0E151F05A9F72B960FB6F8942E
:100DF000DEBF0FBECDBFCF91DF911F910F91FF904E
:100E0000EF900895EF92FF920F931F93DF93CF938C
:100E100000D000D000D0CDB7DEB78E010F5F1F4FDE
:100E200026E0F80111922A95E9F7B8014AE050E06E
:100E30000E94970956E0E52EF12CEC0EFD1EF801FC
:100E40008081882311F00E94E0020F5F1F4F0E1572
:100E50001F05A9F726960FB6F894DEBF0FBECDBFCB
:100E6000CF91DF911F910F91FF90EF900895EF9236
:100E7000FF920F931F93DF93CF93CDB7DEB72797E2
:100E80000FB6F894DEBF0FBECDBF8E010F5F1F4FB0
:100E900027E0F80111922A95E9F7B8014AE050E0FD
:100EA0000E941D0968E0E62EF12CEC0EFD1EF801F3
:100EB0008081882311F00E94E0020F5F1F4F0E1502
:100EC0001F05A9F727960FB6F894DEBF0FBECDBF5A
:100ED000CF91DF911F910F91FF90EF90089550589F
:100EE000BB27AA270ED0E5C0D6D030F0DBD020F04B
:100EF00031F49F3F11F41EF4CBC00EF4E095E7FBF4
:100F0000C1C0E92FE7D080F3BA17620773078407DF
:100F1000950718F071F49EF5FFC00EF4E0950B2EC6
:100F2000BA2FA02D0B01B90190010C01CA01A0013B
:100F30001124FF27591B99F0593F50F4503E68F196
:100F40001A16F040A22F232F342F4427585FF3CFD7
:100F5000469537952795A795F0405395C9F77EF4A8
:100F60001F16BA0B620B730B840BBAF09150A1F0F1
:100F7000FF0FBB1F661F771F881FC2F70EC0BA0F77
:100F8000621F731F841F48F4879577956795B795FF
:100F9000F7959E3F08F0B3CF9395880F08F09927F7
:100FA000EE0F97958795089504D06894B111B5C058
:100FB000089598D088F09F5790F0B92F9927B7518E
:100FC000A0F0D1F0660F771F881F991F1AF0BA950D
:100FD000C9F712C0B13081F09FD0B1E008959CC034
:100FE000672F782F8827B85F39F0B93FCCF3869503
:100FF00077956795B395D9F73EF490958095709560
:1010000061957F4F8F4F9F4F0895E89409C097FBDC
:101010003EF490958095709561957F4F8F4F9F4FCF
:101020009923A9F0F92F96E9BB279395F695879513
:1010300077956795B795F111F8CFFAF4BB0F11F4D6
:1010400060FF1BC06F5F7F4F8F4F9F4F16C088237D
:1010500011F096E911C0772321F09EE8872F762FB3
:1010600005C0662371F096E8862F70E060E02AF0F4
:101070009A95660F771F881FDAF7880F96958795E0
:1010800097F9089597F99F6780E870E060E0089508
:101090009FEF80EC089500240A9416161706180690
:1010A0000906089500240A9412161306140605066C
:1010B0000895092E0394000C11F4882352F0BB0FFD
:1010C00040F4BF2B11F460FF04C06F5F7F4F8F4F60
:1010D0009F4F089557FD9058440F551F59F05F3F9B
:1010E00071F04795880F97FB991F61F09F3F79F04A
:1010F00087950895121613061406551FF2CF4695CC
:10110000F1DF08C0161617061806991FF1CF86954D
:101110007105610508940895E894BB276627772731
:10112000CB0197F908950BD0C4CFB5DF28F0BADF13
:1011300018F0952309F0A6CFABCF1124EECFCADF6C
:10114000A0F3959FD1F3950F50E0551F629FF001DA
:10115000729FBB27F00DB11D639FAA27F00DB11D33
:10116000AA1F649F6627B00DA11D661F829F2227BC
:10117000B00DA11D621F739FB00DA11D621F839F43
:10118000A00D611D221F749F3327A00D611D231F19
:10119000849F600D211D822F762F6A2F11249F5767
:1011A00050408AF0E1F088234AF0EE0FFF1FBB1F8A
:1011B000661F771F881F91505040A9F79E3F510529
:1011C00070F060CFAACF5F3FECF3983EDCF38695DA
:1011D00077956795B795F795E7959F5FC1F7FE2BD4
:1011E000880F911D9695879597F9089597FB092E7D
:1011F00007260AD077FD04D00CD006D000201AF4C0
:10120000709561957F4F0895F6F7909581959F4F62
:101210000895AA1BBB1B51E107C0AA1FBB1FA6173D
:10122000B70710F0A61BB70B881F991F5A95A9F78F
:1012300080959095BC01CD010895FB019F01E89434
:101240004230C4F04532B4F44A3029F497FB1EF41E
:10125000909581959F4F642F77270E940909805DA3
:101260008A330CF0895D8193CB010097A1F716F4C6
:101270005DE251931082C9010C94AD09FA01CF933C
:10128000FF93EF93223044F1253234F5C22FE894D6
:10129000CA3049F497FB3EF490958095709561951E
:1012A0007F4F8F4F9F4F2C2F332744275527FF9376
:1012B000EF930E94BD09EF91FF91605D6A330CF0DE
:1012C000695D6193B901CA016050704080409040EF
:1012D00051F716F4CDE2C19310828F919F91CF9177
:1012E0000C94AD09FA01CF93FF93EF932230CCF029
:1012F0002532BCF4C22F2C2F332744275527FF93C8
:10130000EF930E94BD09EF91FF91605D6A330CF08D
:10131000695D6193B901CA0160507040804090409E
:1013200051F710828F919F91CF910C94AD09FB01E1
:101330009F01423074F0453264F4642F77270E9495
:101340000909805D8A330CF0895D8193CB01009798
:10135000A1F71082C9010C94AD09DC01FC01672FD3
:1013600071917723E1F7329704C07C916D9370837C
:101370006291AE17BF07C8F30895A1E21A2EAA1B07
:10138000BB1BFD010DC0AA1FBB1FEE1FFF1FA21735
:10139000B307E407F50720F0A21BB30BE40BF50B32
:1013A000661F771F881F991F1A9469F760957095BB
:1013B000809590959B01AC01BD01CF010895F894F3
:0213C000FFCF5D
:0813C20000E10000000008003A
:00000001FF
