:100000000C9456000C9473000C9473000C947300C1
:100010000C9473000C9473000C9473000C94730094
:100020000C9473000C9473000C9473000C94730084
:100030000C9473000C9473000C9473000C94730074
:100040000C9473000C9473000C9473000C94730064
:100050000C9473000C9473000C9473000C94730054
:100060000C9473000C9473000C9473000C94730044
:100070000C9473000C9473000C9473000C94730034
:100080000C9473000C9473000C9473000C94730024
:100090000C9473000C9473000C9473000C94730014
:1000A0000C9473000C9473000C94730011241FBE05
:1000B000CFEFDAE0DEBFCDBF11E0A0E0B1E0E0EBD2
:1000C000F9E002C005900D92A637B107D9F711E00B
:1000D000A6E7B1E001C01D92A837B107E1F70E9481
:1000E000F3010C94D6040C9400006F927F928F92CF
:1000F0009F92AF92BF92CF92DF92EF92FF920F93B7
:100100001F937B018C01662757FD6095762FCB01ED
:10011000BA010E94BF039B01AC0160910001709184
:10012000010180910201909103010E9424033B018F
:100130004C01A80197010E94730420E030E040E0E8
:100140005FE30E9473040E948C03E8E8F0E071838F
:1001500060836081718180E090E00E94BD035B015B
:100160006C0160E070E080E89FE3A80197010E94C5
:10017000BB027B018C01C401B30120E030E040E010
:100180005FE30E9473049B01AC01C801B7010E94A8
:1001900073049B01AC01C601B5010E94BC020E9420
:1001A0008C037093870060938600259AA0E8B0E0E6
:1001B0008C9182608C93E1E8F0E08081886080839C
:1001C0008081806180838C9180688C938081816044
:1001D000808380818260808380E090E01F910F9116
:1001E000FF90EF90DF90CF90BF90AF909F908F9057
:1001F0007F906F9008952F923F924F925F926F92EF
:100200007F928F929F92AF92BF92CF92DF92EF92A6
:10021000FF920F931F93DF93CF93CDB7DEB768970D
:100220000FB6F894DEBF0FBECDBF5A8749873C8713
:100230002B87ED86FE860F87188B988F8F8B222455
:100240003324CB0101979A8B898BCA01AA2797FD8A
:10025000A095BA2F8B8B9C8BAD8BBE8BA3C06B896B
:100260007C898D899E890E94BF035B016C01AF89E7
:10027000B88D18966D917D918D919C911B972D91C4
:100280003D914D915C910E94BB02A60195010E9497
:1002900024036D837E838F839887EF89F88DE480B4
:1002A000F580068117816485758586859785A80107
:1002B00097010E94BB02A60195010E942403698355
:1002C0007A838B839C8337014801442455245CC086
:1002D000C401B30129813A814B815C810E94BC0237
:1002E0003B014C012D853E854F8558890E94730442
:1002F0004B855C850E9475006D817E818F8198851C
:1003000020E030E04AE754E40E9473045B016C0192
:1003100020E030E04AE755E40E9473047B018C0141
:1003200020E030E040E85FE30E94200388231CF4D3
:1003300061E070E023C0C801B70120E03FEF4FE764
:1003400057E40E946F041816ACF4C601B50120E012
:1003500030E040E251E40E9473040E94910306C021
:1003600080E991E00197F1F76150704061157105E6
:10037000B9F707C0C801B7010E949103CB010197EB
:10038000F1F70894411C511C89859A854816590635
:100390000CF49ECF0894211C311CAF89B88D18969F
:1003A000B88FAF8BE989FA892E163F060CF457CF28
:1003B00080E090E068960FB6F894DEBF0FBECDBF28
:1003C000CF91DF911F910F91FF90EF90DF90CF9031
:1003D000BF90AF909F908F907F906F905F904F9065
:1003E0003F902F9008952F923F924F925F926F927D
:1003F0007F928F929F92AF92BF92CF92DF92EF92B5
:10040000FF920F931F93DF93CF93CDB7DEB7C05CFE
:10041000D0400FB6F894DEBF0FBECDBFDE011196FF
:10042000EEE5F1E088E101900D928150E1F7DE0107
:10043000A759BF4FE6E0F1E088E501900D928150A9
:10044000E1F799E1692E712C6C0E7D1E80E5F301B8
:1004500011928A95E9F78DEC9CECACECBDE389A395
:100460009AA3ABA3BCA30F2EF0E0EF2EF0E0FF2E7B
:10047000F0E80F2FFFE31F2FF02DEDA2FEA20FA338
:1004800018A720E030E040E05FE329A73AA74BA798
:100490005CA78AE999E9A9E1BFE389AB9AABABAB69
:1004A000BCAB2DAB3EAB4FAB58AFE9AEFAAE0BAF2A
:1004B0001CAF80E090E0A0E0B0E4FE01EF5BFF4FF6
:1004C00080839183A283B38389E6282E312C2C0E5E
:1004D0003D1E2E010894411C511C809104019091F5
:1004E0000501892B51F10F2EF0E0AF2EF0E0BF2E69
:1004F000F0E8CF2EFFE3DF2EF02D8824992418C0DA
:10050000C30166E070E044E650E024EF31E086018C
:1005100075010E94FB00C601B5012DEC3CEC4CE4DA
:100520005DE30E94BB025B016C010894811C911C7D
:10053000F5E18F16910421F7D0CF8091760190914B
:100540007701892B21F0C20163E070E003C0C10193
:100550006BE070E044E650E024EF31E00F2EF0E075
:10056000EF2EF0E0FF2EF0E80F2FFFE31F2FF02D0E
:100570000E94FB00B2CF5058BB27AA270ED075C1EE
:1005800066D130F06BD120F031F49F3F11F41EF4AE
:100590005BC10EF4E095E7FB51C1E92F77D180F301
:1005A000BA17620773078407950718F071F49EF570
:1005B0008FC10EF4E0950B2EBA2FA02D0B01B901BF
:1005C00090010C01CA01A0011124FF27591B99F0C9
:1005D000593F50F4503E68F11A16F040A22F232FD5
:1005E000342F4427585FF3CF469537952795A79525
:1005F000F0405395C9F77EF41F16BA0B620B730BCC
:10060000840BBAF09150A1F0FF0FBB1F661F771F3C
:10061000881FC2F70EC0BA0F621F731F841F48F4F1
:10062000879577956795B795F7959E3F08F0B3CF77
:100630009395880F08F09927EE0F97958795089561
:10064000D9D008F481E008950CD00FC107D140F053
:10065000FED030F021F45F3F19F0F0C0511139C1E4
:10066000F3C014D198F39923C9F35523B1F3951B23
:10067000550BBB27AA2762177307840738F09F5FC3
:100680005F4F220F331F441FAA1FA9F333D00E2E32
:100690003AF0E0E830D091505040E695001CCAF79F
:1006A00029D0FE2F27D0660F771F881FBB1F261764
:1006B00037074807AB07B0E809F0BB0B802DBF0137
:1006C000FF2793585F4F2AF09E3F510568F0B6C050
:1006D00000C15F3FECF3983EDCF386957795679514
:1006E000B795F7959F5FC9F7880F911D96958795E8
:1006F00097F90895E1E0660F771F881FBB1F621707
:1007000073078407BA0720F0621B730B840BBA0BC4
:10071000EE1F88F7E095089504D06894B111D9C010
:100720000895BCD088F09F5790F0B92F9927B75102
:10073000A0F0D1F0660F771F881F991F1AF0BA95A5
:10074000C9F712C0B13081F0C3D0B1E00895C0C084
:10075000672F782F8827B85F39F0B93FCCF386959B
:1007600077956795B395D9F73EF4909580957095F8
:1007700061957F4F8F4F9F4F0895E89409C097FB75
:100780003EF490958095709561957F4F8F4F9F4F68
:100790009923A9F0F92F96E9BB279395F6958795AC
:1007A00077956795B795F111F8CFFAF4BB0F11F46F
:1007B00060FF1BC06F5F7F4F8F4F9F4F16C0882316
:1007C00011F096E911C0772321F09EE8872F762F4C
:1007D00005C0662371F096E8862F70E060E02AF08D
:1007E0009A95660F771F881FDAF7880F9695879579
:1007F00097F90895990F0008550FAA0BE0E8FEEF4E
:1008000016161706E807F907C0F012161306E407D4
:10081000F50798F0621B730B840B950B39F40A26CD
:1008200061F0232B242B252B21F408950A2609F4AB
:10083000A140A6958FEF811D811D089597F99F67AF
:1008400080E870E060E008959FEF80EC0895002458
:100850000A941616170618060906089500240A9425
:1008600012161306140605060895092E0394000CAB
:1008700011F4882352F0BB0F40F4BF2B11F460FF3A
:1008800004C06F5F7F4F8F4F9F4F089557FD905863
:10089000440F551F59F05F3F71F04795880F97FB44
:1008A000991F61F09F3F79F08795089512161306FE
:1008B0001406551FF2CF4695F1DF08C0161617062D
:1008C0001806991FF1CF8695710561050894089562
:1008D000E894BB2766277727CB0197F908958ADF2D
:1008E00008F48FEF08950BD0C0CFB1DF28F0B6DF4A
:1008F00018F0952309F0A2CFA7CF1124EACFC6DFC5
:10090000A0F3959FD1F3950F50E0551F629FF00122
:10091000729FBB27F00DB11D639FAA27F00DB11D7B
:10092000AA1F649F6627B00DA11D661F829F222704
:10093000B00DA11D621F739FB00DA11D621F839F8B
:10094000A00D611D221F749F3327A00D611D231F61
:10095000849F600D211D822F762F6A2F11249F57AF
:1009600050408AF0E1F088234AF0EE0FFF1FBB1FD2
:10097000661F771F881F91505040A9F79E3F510571
:1009800070F05CCFA6CF5F3FECF3983EDCF386952A
:1009900077956795B795F795E7959F5FC1F7FE2B1C
:1009A000880F911D9695879597F90895F894FFCF34
:1009B0000024744801000000000000000000CDCCBD
:1009C000CC3D0000803F0000003F000000009A99ED
:1009D000193F0000003F0000803F000000000000C1
:1009E000404000000000666646400000803F000076
:1009F000604000000000666666400000003F0000A6
:100A00008040000000000000C04000000000000026
:100A10000000000000009A99993E0000803F00000D
:060A2000803F0000000011
:00000001FF
